:020000040804EE
:1000000000000824E9C8060835C906088919060849
:100010008F190608951906089B19060800000000AC
:1000200000000000000000000000000015A105080D
:1000300035C9060800000000AFA10508BFA10508EA
:1000400035C9060835C9060835C9060835C9060880
:1000500035C9060835C9060835C9060835C9060870
:1000600035C9060835C9060835C9060835C9060860
:1000700035C9060835C9060835C9060835C9060850
:1000800035C9060835C9060835C9060859D806080D
:1000900069D8060865D8060875D8060835C906085F
:1000A00035C9060835C9060835C9060835C9060820
:1000B00035C9060835C9060835C9060835C9060810
:1000C00035C9060835C9060835C9060835C9060800
:1000D00035C9060835C9060835C9060835C90608F0
:1000E00035C9060835C906080000000035C90608EC
:1000F00035C9060835C9060835C9060835C90608D0
:1001000035C9060805C6060835C9060835C90608F2
:1001100035C9060835C9060835C9060835C90608AF
:1001200035C9060835C9060835C906083D61050800
:1001300035C9060817D3050835C9060835C90608A4
:1001400035C9060835C90608000000000000000097
:1001500035C9060835C9060835C9060835C906086F
:1001600035C9060835C9060835C9060835C906085F
:1001700035C9060835C906084961050800000000B0
:1001800035C9060835C9060835C9060835C906083F
:1001900035C9060835C9060835C9060835C906082F
:1001A00035C9060835C9060835C9060835C906081F
:1001B00035C9060835C9060835C9060835C906080F
:1001C00035C9060835C9060835C9060835C90608FF
:1001D00035C9060835C9060835C9060835C90608EF
:1001E00035C9060835C9060835C9060835C90608DF
:1001F00035C9060835C9060835C9060835C90608CF
:1002000035C9060835C9060835C9060835C90608BE
:1002100035C9060835C9060835C9060835C90608AE
:1002200035C9060835C9060835C9060835C906089E
:1002300035C90608E5C8060835C9060835C90608DF
:1002400035C9060835C906086D66050835C90608AA
:1002500035C9060835C9060835C9060835C906086E
:1002600035C9060835C9060835C9060835C906085E
:1002700035C9060835C9060835C9060835C906084E
:1002800035C9060835C9060835C90608000000004A
:1002900035C9060835C9060810B5054C237833B9A9
:1002A000044B13B10448AFF300800123237010BD49
:1002B00060270024000000001C710C0808B5034BE7
:1002C0001BB103490348AFF3008008BD00000000E4
:1002D000642700241C710C08154B002B08BF134B1E
:1002E0009D46A3F5803A00218B460F461348144AD9
:1002F000121A36F055FA0F4B002B00D098470E4BD0
:10030000002B00D098470020002104000D000D486C
:10031000002802D00C4822F067FA35F041FD200099
:1003200029001CF043FB22F077FC00BF000008000E
:10033000000008240000000009C905086027002407
:10034000A0880124E927060800000000704700BFCC
:10035000036818474A688B6810B40C6842600460F0
:1003600083605DF8044B704742F2107019F07CBD59
:1003700010B50023164C174A82B004F1400019460C
:100380002260236122F0FAFE04F1540022F094FE70
:1003900000234FF4005220212046009322F0A2FFB8
:1003A0000D4A20460D4902B0BDE8104022F01ABAAD
:1003B000236913B19B680A4898472FF041FD09480B
:1003C00022F0BAFE084822F018FFF1E7FAE700BF72
:1003D0007C27002460580C08000000242134060803
:1003E00080270024D0270024BC27002410B584B027
:1003F0004FF4E1310F4817F0EFFB04AC0FF02AFC8B
:100400000D4900230D4A44F8101D21460C48019364
:10041000CDE9023222F072FF039B13B19B682046A4
:10042000984704B010BD039B13B19B6820469847C2
:100430002FF006FD7CAF002455FC040848DD0708BA
:100440007C27002470B483B00346002540F60F36A5
:100450006C469E819D609D7384E8060094E80300CD
:1004600083E8050003B070BC704700BFF0B583B0EF
:10047000847B02AD05E9060034B9818940F60F326C
:10048000914203D00123837303B0F0BDD0E901266C
:100490009642F7D8921B019FBA42F3D39E42F1D302
:1004A0001D4603680446A6EB050203EB050000D0D9
:1004B00043B91BB13A46009936F00EF9A3681F44C0
:1004C000A760E1E70146384436F006F92368581979
:1004D000EFE700BF8B7B9BB940F60F3210B48C89DD
:1004E000944206D001225DF8044BC0E900338A73C0
:1004F00070478A680B685DF8044BC0E900327047AA
:100500000023C0E9003370472DE9F00F190D84B0C6
:1005100014461D460091002140F2FF7A4FF0000B77
:1005200001914FF0FF37834E8446DDE9008945ECA9
:10053000174B08EA0A0809EA0B09B5EE407BCDE93A
:10054000028918EB060849EB0709F1EE10FA41D0D1
:10055000B9F1000F08BFB8F5806F6AD06FF00D06D3
:100560004FF0FF37B04579EB07010C99ACBF01267E
:100570000026002908BF002626B1B8F1100F79F136
:10058000000173DB6FF460704FF0FF31DDE902AB07
:100590001AEB000A4BEB010BBBF1000F08BFBAF1DD
:1005A000FE0F0DD224F060400021014308D1042148
:1005B000002345EC174BF7EEC77B17EE902A00E0BF
:1005C000082160468CF80010CCE9022304B0BDE895
:1005D000F00F7047B9F1000F4FF0FF3056494FEA66
:1005E000D37308BFB8F5806F00EA020A01EA050B71
:1005F00058D0B94508BFB04566D0B8F1100F79F1B1
:1006000000022EDA6FF00D064FF0FF37B04579EBA0
:10061000070266DB08F10F004BF38F2A40F3050059
:10062000820242EA0A02022142EAC332002392B263
:10063000C7E74FF0FF304049DE0F00EA020A01EA47
:10064000030B5AEA0B0343D04FF0000805F40029CE
:10065000CAF3080258EA090361D1002A67D012B22E
:1006600037E0DDF804A04FF4F842DAE74FF0FF3648
:1006700040F2FF3706EA020A07EA030B5AEA0B01C7
:1006800080D19E0A40F2FF3208F10F00DC0F02EA2F
:100690000608022180B2002348EAC43242EA8022DE
:1006A00092B28EE75AEA0B02DBD04FF0000805F455
:1006B0000029CAF3080258EA09012BD192B30FFAB4
:1006C00082FA4FF4F842ACE7DDE900129246A8E75F
:1006D000019A42EAC6320221002342F4F84292B261
:1006E0006FE7B6EB08001AF10008019A00F12A0A38
:1006F0004BF580190A30CAF1200128FA0AFA29FAC2
:1007000000F009FA01F14AEA010A4AEA000A0FFA7E
:100710008AFA86E742F4007A4FF4F84281E742F41D
:100720000072D6E74FF0010A4FF4F84279E7012250
:10073000CFE700BF01FCFFFFFFFF0F0030B583B024
:1007400004466D4685E806009822002136F028F818
:10075000204695E80600FFF775FE04F11402042315
:10076000C4F89420A37603B030BD00BF2DE9F04F4C
:1007700089B090F810C06E4686E80C00BCF1000FFE
:1007800033D109290F460546D0F8088017D00B2F22
:1007900019461A464FF0000331D00C2F28D19F2163
:1007A00008AA012703AC434602F8041D2846CDE9F8
:1007B000032794E80600FFF759FED5F8088005AA3C
:1007C000434696E8030082E80300284606CAFFF77E
:1007D0004DFED5F894104FF6FE738A889B1A012BB4
:1007E0000ADD013200238A802B7409B0BDE8F08F46
:1007F0000D2F1ED1BF21D3E703232B74F5E7002B68
:1008000008BF182922D2402319440DF11D09C9B28D
:100810004846441E00F8011C03AA4346A9EB040104
:1008200003942846049106CAFFF720FE0B2FD0D070
:10083000C3E7002B08BF18292CD3072F32D1002B78
:1008400008BF1F292ED12039C9B2A9E74FF0400BAC
:100850000DF11D090121DFF858A04846E9B1A0EBD0
:10086000010E140A00F8012D190A704544EA0364C8
:100870000B462246F5D10CF1010452EA0301E4B221
:1008800003D01AF80410A446E8E70CF11801594403
:10089000C9B2BEE77B01DBB2B6E70CF1010C5FFA2F
:1008A0008CF4EEE74FEA471B5FFA8BFBD0E700BF03
:1008B00054DD07082DE9F04701218CB00646009170
:1008C00008A8FFF721FE357C15B10CB0BDE8F08714
:1008D000DDE90A239DF820E0002BD6F808C008BF08
:1008E000182A22D2BEF1000F1FD1203A0DF11D07A8
:1008F000D2B23846441E03A900F8012C63463F1BC0
:1009000003943046049706C9FFF7B0FDD6F894105B
:100910004FF6FE738A889B1A012B33DD01320023C8
:100920008A8033740CB0BDE8F087002B0DF11D07F1
:1009300008BF1F2A2DD052EA030402D1BEF1000FD6
:100940002ADD4FF00109DFF858803846B9F1000F71
:100950000CD0A0EB090A110A00F8012D1C0A504521
:1009600041EA036123460A46F5D10C43691CAEEB0C
:10097000090EC9B214B9BEF1000F06DD18F80190D6
:100980000D46E3E703233374CCE7A5F10802D2B2A6
:10099000B0E7FF223846ADE7F7223846AAE700BFA6
:1009A00054DD070870B4D0F894404FF6FE73A28867
:1009B0009B1A012B1ADD85680132002315F1660FA1
:1009C000A28003740ED800F18C02944212D004F17C
:1009D00008061A46C0F89460A381A560A17302744A
:1009E00070BC7047072370BC03747047032370BC4E
:1009F0000374704702220274F2E700BF0C29836877
:100A000070B5044686B00D4633D00D292BD0480171
:100A1000C0B206AA012601A902F8040D2046CDE9BC
:100A2000012606C9FFF722FDD4F894104FF6FE7395
:100A30008A889B1AB34218DDA0680132002310F1A6
:100A4000660F8A80237416D804F18C02914216D066
:100A500001F108061A46C4F894608B8188608D7392
:100A6000227406B070BDBF20D3E70323237406B001
:100A700070BD9F20CDE70723237406B070BD02220E
:100A8000EEE700BF2DE9F047077C86B057B9D0F8F4
:100A9000943000F11404A34207D09C79A14209D0FC
:100AA0000F23037406B0BDE8F0870423037406B077
:100AB000BDE8F0870229D3F80080846809D00C29AA
:100AC0004ED00D299B8844D10DF11509BF214E460A
:100AD00011E0A4EB080300251C46172B32D9072987
:100AE00046D1002D08BF1F2C42D1A3F120010DF1EA
:100AF0001509C9B24E460446701E154601AFA9EB52
:100B00000002019006F8011C43460292204697E835
:100B10000600FFF7ABFC6DB103A82146FFF7DAFC36
:100B2000DDE90323434520D3A3EB080302B142448C
:100B3000C5E90023D4F89430083BC4F8943006B0DB
:100B4000BDE8F08703EB41110DF11509C9B24E461E
:100B5000D1E7CC1E0025A4B2B3FBF4F39CB2BCE7F2
:100B60000DF115099F214E46C5E700231A46DFE720
:100B700054EA05030DF1150926D00123DFF850A032
:100B80004E46BBB1A6EB030E230A06F8014D4FEA11
:100B9000152C764543EA056365461C46F4D107F1FA
:100BA000010C54EA05035FFA8CFC07D01AF80C30EC
:100BB0006746E6E701375FFA87FCF7E71837FFB2C9
:100BC00007EB4111C9B296E717274E46F8E700BF79
:100BD00054DD0708F0B5057C87B055B9D0F89440CE
:100BE00000F11406B44206D0A4798C4207D00F223B
:100BF000027407B0F0BD0422027407B0F0BD1646BF
:100C0000FF210DF1140C012701AA8DF8141083683F
:100C10000446CDE901C706CAFFF728FC6EB121469C
:100C200003A8FFF757FCA268DDE9033191420AD31C
:100C30008D1A03B11344C6E90035D4F89430083B4B
:100C4000C4F89430D5E72B46F5E700BF70B5837B39
:100C500082B023B101240474204602B070BD047C2C
:100C6000002CF9D100F11403D0F894209A4203D05B
:100C70000A24204602B070BD6E460D46014630463D
:100C8000FFF728FC96E8030085E80300204602B041
:100C900070BD00BF10B4069CA468A40703D15DF822
:100CA000044B00F04DB86FF002005DF8044B704744
:100CB000C2688B685200486803FB02F300FB03F034
:100CC00040007047D86810F0030F34D1F0B50C69BC
:100CD0008BB064BB4E6956BB8C68012C27D1CC68A5
:100CE000012C24D11C46D3F808C00D461746169B8C
:100CF000D4E900126C6A02FB0CF2049001FB02F1D1
:100D0000286A089402910790149A1299D5E9004034
:100D10000594159C0690E4681098D7E90075039433
:100D2000CDE9007501F062FF30460BB0F0BD6FF009
:100D300002000BB0F0BD6FF002007047002070475A
:100D40002DE9F04FB5B093460068439E1A88D6F857
:100D50000CC0DF681FFA8CF91B902C92CDF8A49080
:100D60003F9DD3E90139D5E901540893D6E9013013
:100D70000E6918964E6926968E681996CE68279643
:100D8000D1E900621E920A6A496A1F922091DBF83B
:100D900000102C9A2191DBF804102291002A00F017
:100DA00060811FFA84FE00211FFA85F81FFA87FA76
:100DB0002E91CDF868E071461EFB08FE1FFA8CF7F5
:100DC0004246BDF820C01EFB0AFE84B201FB02F2BF
:100DD00099B2CDF844C01FFA8EFC02FB0AF31FFA49
:100DE00089F52391D34604FB01F1C3F38F031494D7
:100DF0000CF0030452001B980E95339434B205FB9B
:100E00000AF54FEA4A0A2D93013B12940AFB0204A9
:100E1000119A9BB2CDF8A88002FB05F201333297FC
:100E2000319207FB01F2CDF8A0C030929A0000EB9E
:100E3000C3030F9516942B935346DA462F929B4685
:100E4000239B002B00F0FE80449B1D931B9B08936B
:100E500000231C93149B002B5FD00022BDF89C3014
:100E60001C99139201FB03F3BDF898209B1A2A9A50
:100E70009A1815930D920E9A02FB03F31793159986
:100E80000D9A91423EDA1A988946BDF8643000FB0B
:100E90000BF21399109201FB03F3BDF860209A1A2C
:100EA000179B8718D3180A923E9A0AFB03230993CB
:100EB0000E9BBB42A8BF3B4698460A9BBB4218DA32
:100EC000119A4A458CBF0022012211460E9A9A427D
:100ED00000F3CB801C46089D013428465A46002169
:100EE00035F05EFCA7425D44F6DC089B109A134483
:100EF0000893099B09F101090F9A134409930D9B6B
:100F00009945DAD1169B089A934200F0D680139B3C
:100F1000149A01339A421393B1DC1C9B239A013338
:100F200093421C9396DB1B9B089A934200F08A80A5
:100F3000329B002B00F08680219ADDF808C1A2F1D7
:100F4000040E229A409DA2F104081D9ACDE908AB37
:100F500002EB03099246DDF8CCB0429B002B00F077
:100F6000CD802D9BDCF80010002B00F0CC802F9B57
:100F70001B9CEF1855F8043B20682FFA83F24FEAC8
:100F800033232FFA83F3C3EA2246C2EA034323FB47
:100F900000116368083426FB0311BD42EAD12B9B84
:100FA000BBF1000F17D095F90020BBF1010F188895
:100FB00010FB021100F0A98095F90120BBF1020F8E
:100FC000588810FB021100F0A2809A88033515F9A9
:100FD000013C12FB031158F8040F4FF0804300242A
:100FE00020EAE0722493259400285EF8043F01FA79
:100FF00002F2DDE92467C3FB02674FEAD67242EAD8
:1010000047030DDC404201228240013A03EA02011B
:1010100003414FEA620248BF01329142C8BF013327
:101020001E9A0CF1040C13441F9A9342B8BF134646
:10103000209A9342A8BF13460AF8013BCA458CD1B7
:10104000DDE908AB3E9A31992E9B0A443099013371
:101050003E92449A2E930A4444922C9A9A427FF4E8
:10106000EFAE002035B0BDE8F08FCDE90B97DDE99C
:1010700008561C460F46DDF848900BE04B467FB9FA
:10108000013429463046524602F0FEFF44455D4495
:1010900056440CDA002C5A464FF000012846EDDA8F
:1010A000013435F07DFB5D4456444445F2DBDDE917
:1010B0000B97BC42FFF610AF17E71D9B139DBDF9C0
:1010C0008000289A01351E99BDF97C400693219E27
:1010D000429B049205930191229B0390299A1B99AC
:1010E000009640980294139501F092FA149B1D907B
:1010F000AB421B9B08933FF7C2AE0EE719462D9BF0
:10110000002B7FF434AF1B9B4AE7013563E70235C0
:1011100061E700BFC2688B689200486803FB02F376
:1011200000FB03F0704700BF2DE9F04F83B00F695B
:101130000C4686460C9D90461E460095DDE90DC581
:10114000DDE90FBA0195DDE911590FB94F69D7B142
:101150006B68012B02D17368012B2AD02146019CB8
:10116000334642467046CDF848901195CDF840A0E0
:10117000CDF83CB0CDE90DC4009C0C9403B0BDE8A3
:10118000F04FFFF7DDBDDF68BF07E1D18F68012FAA
:10119000DED1CF68012FDBD1DCF80870012FD7D169
:1011A000DCF80470012FD3D103B0BDE8F04FFFF796
:1011B00089BDDCF80430012BD0D1AB689B07CDD1C1
:1011C0003368012BCAD12146019C33464246704602
:1011D000CDF848901195CDF840A0CDF83CB0CDE9C0
:1011E0000DC4009C0C9403B0BDE8F04FFFF752BD56
:1011F00010B40C46016909B9416959B1596801290E
:1012000002D16168012919D0204611465DF8044BCE
:10121000FFF780BFE1688907F0D181680129EDD12E
:10122000C1680129EAD191680129E7D151680129F2
:10123000E4D120465DF8044BFFF780BD51680129D9
:10124000E2D19B689B07DFD12368012BDCD12046CC
:1012500011465DF8044BFFF72BBD00BF2DE9F04FA1
:10126000B5B0DE6896464F69439D18460596EA6814
:101270002E9796423F9B40F0EF82012F00F3EF82C2
:101280009A68032A40F0EB825B68032B40F0E78208
:101290006B688E69002B3193C6F100022A9240F3ED
:1012A0007982059A4FF0000C429C131FAD6804F13F
:1012B0001007CC689B08239524945200846807EBA0
:1012C0000315406813925A1C33909B002E981C956E
:1012D00095004042059A2B942F90249C3398289592
:1012E00015462993331804FB05F52B9C2C931346C4
:1012F00004FB02F4139A2F981A4407943E9C06921A
:1013000003FB0042033BCDF874C032920A69269574
:10131000CDF8B4C030922593DEF80430D1F800B097
:101320002193DEF8003022934B6818934B6A19938F
:101330008B6A1A932A9B002B40F389820023159312
:10134000239B002B40F31782069B2B981946159B75
:101350001A4601FB02F22A99CB182C9927920329ED
:10136000A8BF032100912E990144019140998A1848
:1013700032991E92079A02FB03131B932F9B1F9314
:10138000002320931F9B002B40F3578200230293DE
:10139000259B002B40F359821D9A449B1344279AA6
:1013A0001493229B0493219B0393409B1344089323
:1013B0001B9B0993429B1293129B009A1D685C68C9
:1013C0009868D968159B099E9342089F61DA9846F0
:1013D000029B08F10108D3B933683A6843F3072E3A
:1013E00043F3074C42F3072A42F30749DE44DC4447
:1013F0000AFB0E444BFA83FE09FB0C000BEB236344
:101400004FFA82FC12160CFB0E5502FB0311059AD3
:10141000B358BA5843F3072E43F3074C42F3072A55
:1014200042F30749DE44DC440AFB0E444BFA83FED8
:1014300009FB0C000BEB23634FFA82FC12160CFB2A
:101440000E5502FB0311019B022B1BDD139AB358AF
:10145000BA5843F3072E43F3074C42F3072A42F3EB
:101460000749DE44DC440AFB0E444BFA83FE09FBC9
:101470000C000BEB23634FFA82FC12160CFB0E558B
:1014800002FB0311079B1E44069B1F44009B9845CB
:101490009ED1039B00271E684FF080430B970A9351
:1014A00026EAE672049B002E05FA02F51B68DDE9C8
:1014B0000A78C3FB05784FEAD77545EA48050DDC85
:1014C00076420123B340013B05EA030235414FEA6E
:1014D000630348BF01339A42C8BF0135039B00270D
:1014E0005E684FF080430D970C9326EAE672049BEA
:1014F000002E04FA02F45B68DDE90C78C3FB047883
:101500004FEAD77444EA48040DDC76420123B34025
:10151000013B04EA030234414FEA630348BF01334D
:101520009A42C8BF0134039B00279E684FF0804356
:101530000F970E9326EAE672049B002E00FA02F043
:101540009B68DDE90E78C3FB00784FEAD77040EA6C
:1015500048000DDC76420123B340013B00EA030260
:1015600030414FEA630348BF01339A42C8BF01309C
:10157000039B0027DE684FF080431197109326EA03
:10158000E672049B002E01FA02F1DB68DDE91078B7
:10159000C3FB01784FEAD77242EA48030DDC76427A
:1015A0000122B240013A03EA020133414FEA6202EA
:1015B00048BF01329142C8BF013318990022199ED9
:1015C0000D440C4408440B44B5421A99B8BF354643
:1015D000B442B8BF3446B042B8BF30468D42A8BF0F
:1015E0000D468C42A8BF0C46884265F30702129D47
:1015F000A8BF0846B34264F30F2205F11005B8BF37
:10160000334660F3174212958B42A8BF0B460499EC
:10161000103163F31F62149B0491039943F8042B68
:10162000103114931C9B03910999AB4201F1040101
:101630000991089901F1040108917FF4BDAE1D9B49
:10164000DDE928420433D3181D93059DA5427FDDB3
:10165000449AA3001D99009E02EB010C429A149437
:1016600002EB030E229ACDF820C002EB0308219A68
:10167000CDF824E002EB0309DDF81CC0069BDDF881
:101680004CE01293CDE90398099A159952F8043B5E
:10169000B14209921B9A02EB04081E9A02EB040065
:1016A00014DA029A002A79D0019A022A00F38F8074
:1016B000129F18F90520013110F90590E0445A44B1
:1016C0008E42384409FB0233F3D11297039A002764
:1016D000049852F8041B179703924FF08042002998
:1016E000169250F8042B049021EAE170DDE9167897
:1016F00003FA00F3C2FB03784FEAD77242EA4803C9
:101700000DDC494201228A40013A03EA02000B4102
:101710004FEA620248BF01329042C8BF0133189AB3
:1017200001341344199A9342B8BF13461A9A93424C
:10173000A8BF1346089AA54202F8013B0892A3D11C
:101740001D9B059ADDF850A01344A3EB0A031D93DB
:101750001F99249A08460199209B10448A1A2699B9
:10176000013301921B9A20930A441F901B92239AE3
:101770009A427FF407AE2A99309A08462C992D9BFD
:1017800010448A1A01332C92319A2D939A422A904E
:101790007FF4D0AD002035B0BDE8F08F019A022A69
:1017A0002CDC8A46129F98F900200AF1010A90F970
:1017B00000905A4418F905105645E04409FB0233DD
:1017C00059444257384402FB0133ECD17DE78A4645
:1017D000129F18F905200AF1010A10F905905A44E0
:1017E00018F90E105645E04409FB0233594410F92C
:1017F0000E20384402FB0133EBD166E78946129F85
:1018000098F9001009F1010990F900A0594418F95C
:101810000520B1450AFB01335A4410F905A018F917
:101820000E10E0440AFB023210F90EA001EB0B038C
:1018300038440AFB0323E3D147E7019B2B9A9B1A09
:101840000293259B002B3FF7A7AD0024FDE62C9BC0
:10185000339A9B1A159373E56FF002009BE74FF0E4
:10186000FF3098E72DE9F04F5F68BFB09868289780
:10187000DF684B69499D2A93CB688E682B930B696F
:101880004D9C359353681268239037924A6836937B
:1018900016F0030316924A6A209617928A6A0197F5
:1018A0001892AA686D688869D1F8009029923495D9
:1018B000A5682C956568389500F04281BDF8AC109C
:1018C00080B2BDF8E0202291BDF8D4102592BDF879
:1018D000A8302491002A00F02F81BDF88020BDF8A7
:1018E00004B0BDF8B01014460D92269102FB0BFA1D
:1018F000002900F0218195005B42379A40422A93EB
:1019000000274C9B521B369980B2D21ABDF8A460B6
:10191000491B1495043A1C96C91AC4EB84731A9295
:10192000BDF8A0209B00BDF88C6028920A1F21966C
:101930001B92BDF8D0204C9C2B9219932C4406FB93
:101940000BF2489B1C9E02925B4406FB0AF20E9728
:1019500029941D90019220972C930022BDF9743098
:101960002B98C8461F92002BBDF8A820C3F1000198
:10197000C8BF0021D1461E92DA46289A0C91D21A8D
:101980000B448242A8BF024600920A461C9901FB02
:1019900002F22792219A02FB03F32393BDF97820E8
:1019A000BAF1000F00F0AD80002AC2F10001239BC4
:1019B000D8BF8E46219829991344A0EB0202C8BFD4
:1019C0004FF0000E0A911C99734491420AFB03F3F5
:1019D000A8BF1146279A8B4672444A9909FB021206
:1019E0001092489A1A440B922C9AD31812930D9B7A
:1019F000002B77D00A9A19990E9B1144013B039151
:101A00001A99114408911B998A1807924E9AD31873
:101A10000993109B0693039B0C9E53F8044B03936E
:101A2000009B1A46B2421BDDDDF818C00B9FF34540
:101A30000EDD60463946724691F90030013290F968
:101A40000050514443449345484405FB0344F3D1BB
:101A5000029B01361F44019B9C44009BB342E6D18C
:101A6000079B0020089A53F8041F059007934FF036
:101A700080438142049352F8043F089221EAE172C4
:101A8000DDE9045604FA02F4C3FB04564FEAD572AA
:101A900042EA46030DDC494201228A40013A03EA48
:101AA00002000B414FEA620248BF01329042C8BFB8
:101AB0000133169A1344069A01320692179A9342FA
:101AC000B8BF1346189A9342A8BF1346099A02F862
:101AD000013F0A9B0992039A93429CD1DDE90D23B1
:101AE00013440E930A9A14990B9B0A440D990133DF
:101AF0000A92109A0B930A441092129A9A427FF417
:101B000076AF1E9B229A13441F9A9BB201321E93FA
:101B1000269B1F929A427FF441AF1D9BD346249A85
:101B2000CA46C1461344209A9BB201321D93259B9D
:101B300020929A427FF411AF00203FB0BDE8F08FB1
:101B40003246002DC0F10006D4F80CA02296F3DD39
:101B50001E4621932899D3462A9B299C41185D4211
:101B600023980AFB04F4531E3995CA4607FB05F572
:101B7000249139460A9494002B9A01FB00F13A957E
:101B800023F0030502FB07F30B913B934C99229B37
:101B900010313396002B26943191CDE92F5540F327
:101BA000BB8100231B932C9B002B40F3A281249923
:101BB000D1463498DA461B9A8142229BA8BF01463F
:101BC0002398134404912A9901444A9825910A992B
:101BD00002FB01023C920B9A02FB03F33D933A9BFA
:101BE0002D93399B279300233293279B002B40F39F
:101BF000988100230993BAF1000F40F365813D9A63
:101C00002D9B29991344259A01988A42A8BF0A4618
:101C100000219346379A1D911F92369A3C991E9245
:101C2000099A00FB023302FB0A122E92489AD3183B
:101C30001A93209B002B40F334814C99CC461D9A7B
:101C40000846309B00EB8201219813440C914E9979
:101C5000014419912E998A180D92319A02EB83034F
:101C60001C931E9B07931F9B08930C9BD3E9007644
:101C70009D68DC68049B19461B9B994236DD0D9AD2
:101C8000E146069302921A9A0392099959451EDA7F
:101C90000094DDE9022090F90030013192F900C092
:101CA0004B44019C92F90180594592F902E003FBF3
:101CB0000C77204492F903C0009C03FB086603FBE9
:101CC0000E55524403FB0C430093E4D11C46039A87
:101CD0000B99069B0A440A9901330392029A0693D0
:101CE0000A440292049A9A42CFD1CC46079B002024
:101CF00019684FF080430F900E9321EAE172089B20
:101D0000814207FA02F71B68DDE90E89C3FB0789E8
:101D100042464FEAD27747EA49070DDC49420123A0
:101D20008B40013B07EA03020F414FEA630348BFC0
:101D300001339A42C8BF0137079B002158684FF012
:101D400080431191109320EAE072089B002806FA64
:101D500002F65B68DDE91012C3FB061213464FEA78
:101D6000D17141EA43010DDC404201238340013B34
:101D700001EA030201414FEA630348BF01339A427B
:101D8000C8BF0131079B002698684FF08043139627
:101D9000129320EAE072089BB04205FA02F59B68B4
:101DA000DDE91289C3FB058942464FEAD27545EA4F
:101DB00049050DDC404201238340013B05EA030253
:101DC00005414FEA630348BF01339A42C8BF01355A
:101DD000079B0026D8684FF080431596149320EA9D
:101DE000E072089BB04204FA02F4DB68DDE9148972
:101DF000C3FB048943464FEAD37242EA49030DDC30
:101E0000404201228240013A03EA020403414FEAC0
:101E1000620248BF01329442C8BF013316980022C3
:101E2000179C0744014405440344A7421898B8BFCF
:101E30002746A142B8BF2146A542B8BF25468742E2
:101E4000A8BF07468142A8BF0146854267F3070243
:101E5000A8BF0546A34261F30F220799B8BF2346E6
:101E60000C9C65F317421031834204F11004079172
:101E7000A8BF03460D99089863F31F62199B1030A1
:101E8000043143F8042B19931C9B0C94A342089033
:101E90000D917FF4EAAE219BE1462F9A0433D318CB
:101EA00021931F991D9B209A08461E991344269A38
:101EB000104411441A9A9A451D9302F101021F9091
:101EC0001E911A923FF7B5AE27992B9A084625998D
:101ED000329B10448A1A3B99013325922D9A3293F2
:101EE0000A4427902D922C9A93427FF47EAED346DB
:101EF000CA462299359A08462499339B10448A1A77
:101F000001332492389A3393934222903FF414AED3
:101F1000229B002B3FF745AE249B289A9B1A1B93CC
:101F200041E6259B239A9B1A099364E62DE9F04F1D
:101F3000C3B0DD68519C2F460695E5684D9EAF42C3
:101F400040F00C83676800683D971C905768A06854
:101F500012682D902C9298684A685B680A923F93A9
:101F60004A6AB3680B922F933D9A73680D90002ACA
:101F70003C932B970F68D1E90503D1E90364896A83
:101F80000C9140F3D382069AA4B22F9905F0030571
:101F9000002A4FEA420B02FB01F1BDF8F0E0409449
:101FA0003E911146B8BFD11C2F9A289594463C9A71
:101FB000C1F38F01069D0CFB02F2DDF8BCC0299134
:101FC0001CFB0EF1002A8CB20BF10401B8BF0132E8
:101FD000089199B204F00103C2F34F0235942093A3
:101FE000AB001F9207932D9B002B40F39F82299BF0
:101FF0000CF1FF344042013A013B4942419092B218
:1020000005FB04F09BB289B20D9C2290581C04FB86
:1020100005F5013236910101079C8000299B02FBE6
:1020200004F41E909B002B9802FB0BF224943CB20C
:1020300008449BB234943290509C2C980C442195C7
:102040004118B5B2309300232E95339431912392E9
:102050003B930022BDF9D8303F992692BDF8042168
:10206000279325921A46CB1A3C9952423E988B42AE
:102070003A92A8BF0B4600FB02F21D93CB1A37928F
:1020800052002A9300FB03F338925B003993279B9D
:10209000BDF99470002B80F24D82389A00211C9873
:1020A000DDF8E8A034F07CFBDDF8DC801D9B9A4570
:1020B0004BDA279B4C9903EB0A090D9B03FB09792B
:1020C000069B03FB0919CDE9038ACDF808909846D1
:1020D000DDF8BC90DDF8D0A0B9F1000F29DD1C9B24
:1020E0000024039A029E03EB420501970CE00D9F2A
:1020F000674511DD013429463046424601F0C4FFF0
:10210000A1455D4446440ED0019B5A460021284615
:1021100014EB030C5346EAD5013434F041FB5D4423
:102120004644A145F0D1039B229A4344019FD31812
:102130000393029A2199049B0A44013302921D9A47
:1021400004939342C8D1DDF80C802A9B002B40F009
:10215000F581299B002B00F0FC81509B10331093DC
:102160002C9B103305932B9B10330493529B043309
:10217000099300231193BDF844301C99109A01EB88
:1021800043064E991F9F19440E9652F808AC0F91C2
:1021900052F8049C52E9048E002F46D08C46069BD0
:1021A00056F80B00DCF800205CF8033001902FFAA1
:1021B00082F12FFA83F4C4EA014003904FEA3222FD
:1021C00035684FEA332301982FFA83F3C0EA0540BC
:1021D000029303462FFA82F20198C0EA2540039D3C
:1021E00023FB0588029BC2EA034520FB05EE089805
:1021F000C1EA244180597468C0EA0445C0EA244019
:1022000025FB01AAC3EA224320FB0399013F079B58
:10221000DC44BFB21E44002FC1D10E9B249A13444C
:10222000239A0E930F9B13440F93209BABB10F9CEB
:102230000E9D94F90020298894F90130688811FBDB
:10224000028894F9022010FB03EE94F90310AB8886
:10225000E88813FB02AA10FB0199049B002053F8A5
:10226000101C4FF080431390129321EAE172059BFA
:10227000814208FA02F853F8103CDDE91245C3FB2D
:10228000084523464FEAD37242EA45030DDC494232
:1022900001228A40013A03EA02000B414FEA62023E
:1022A00048BF01329042C8BF01330A9A13444FF02D
:1022B000804214920B9A9342B8BF134600221592A3
:1022C0000C9A9342A8BF1346099A02F8043C049B57
:1022D00053F80C1C059B21EAE172002953F80C3CD1
:1022E0000EFA02FEDDE91445C3FB0E4523464FEA14
:1022F000D37242EA45030DDC494201228A40013A89
:1023000003EA02000B414FEA620248BF01329042E9
:10231000C8BF01330A9A13444FF0804216920B9AB9
:102320009342B8BF1346002217920C9A9342A8BF5B
:102330001346099A02F8033C049B53F8081C059BBA
:1023400021EAE172002953F8083C0AFA02F2DDE9B9
:102350001645C3FB024523464FEAD37242EA4503C2
:102360000DDC494201228A40013A03EA02000B4196
:102370004FEA620248BF01329042C8BF01330A9A55
:1023800013444FF0804218920B9A9342B8BF134601
:10239000002219920C9A9342A8BF1346099A02F898
:1023A000023C049B53F8041C059B21EAE1720029BE
:1023B00053F8043C09FA02F2DDE91845C3FB024573
:1023C00023464FEAD37242EA45030DDC494201221B
:1023D0008A40013A03EA02000B414FEA620248BF19
:1023E00001329042C8BF013310990A9A1031134448
:1023F000119A1091059904321031119205910B999F
:102400008B42B8BF0B460499103104910C998B4252
:10241000A8BF0B46099901F8013C0B1D09931E9BAF
:1024200093427FF4A8AE1A46529BDDE9304813442C
:10243000DDE932E55293289B002B5FD004EB0309C2
:10244000529E4FF0010A359F1FFA89F9DDF818C036
:10245000CDE90189611C2246630055F8040B8CB25A
:102460007FB14E990A441C990B440021013192F925
:102470000080B3F8009062448F425B4419FB08006F
:10248000F4D1019A4FF080435EF8041B52F8048B9C
:102490001A930023019221EAE1721B93002900FAAA
:1024A00002F0DDE91A23C8FB00234FEAD27242EAA8
:1024B00043030DDC49420AFA01F2013A03EA020041
:1024C0000B414FEA620248BF01329042C8BF01335C
:1024D0000A9A13440B9A9342B8BF13460C9A93423C
:1024E000A8BF134606F8013B029B9C42B2D1289B31
:1024F000529A013B9BB201331A445292259B2E9A69
:102500001344269A9BB2013225932D9B2692934227
:102510007FF4BDAD369B409A13443B9A9BB2013287
:1025200036933D9B3B9293427FF493AD002043B0A2
:10253000BDE8F08F4FF0000AD046B7E51C9B0021A4
:10254000399A03EB480034F02BF9299B002B7FF4D8
:1025500004AE1C46509DDDE92BE86CE76FF00200ED
:10256000E5E700BFC268D1E9010303FB02F300FB0A
:1025700003F04000704700BF2DE9F04F83B00C9D81
:102580000095DDE90D56DDE90FBA01968E68012E42
:10259000DDE911981FD1AE680C4607469446032E1C
:1025A0009E4602D16E68032E1AD02146019C7346C6
:1025B00062463846CDF84880CDF84490CDF840A02A
:1025C000CDF83CB0CDE90D54009C0C9403B0BDE8AF
:1025D000F04FFFF7ABBC03B0BDE8F04FFFF742B9D7
:1025E0008E69012EE1DC03B0BDE8F04FFEF736BE88
:1025F00010B4DB68CC689C4203D000205DF8044B2B
:10260000704708465DF8044B1146FFF7ABBF00BFAB
:102610002DE9F04FA1B00F46029030981691510865
:1026200000EB0204BDF9B0001E920790BDF9B400A2
:102630001C930890BDF8B8001D94159000F0C0815F
:1026400085082F9A013907EB40069C4600F00300ED
:1026500002F1100389B26A1E14901F9103EBC101AD
:102660002F9892B2634618910830A11C01320833AA
:102670000B900A9130982A990493D300920002306B
:10268000083117951A92F218FB18199609900591BE
:1026900003921B93159B0298C1180B9B53F8086C6F
:1026A00053F8044C179B0691002B00F05882DDF87C
:1026B00064C0A146DDF858E037468A460190019B88
:1026C000DEF8005053F8042BDCF8000001934FEAC9
:1026D000322B5AF8043B2FFA8BFB2FFA82F24FEA87
:1026E0003328CBEA22412FFA83F3C2EA0B422FFAB6
:1026F00088F8C8EA234BC3EA084822FB056622FB98
:10270000007728FB054428FB0098DEF804300CF124
:10271000080C5CF8049C0EF1080E21FB036621FBFB
:1027200009772BFB03442BFB0989039B9C45C6D1EE
:10273000029A1A9B1146069A1A441944039B069260
:102740001B9A02911499002940D00298069990F999
:1027500000C0B2F900508E46B3F9000091F90010A4
:1027600015FB0C6610FB0C7715FB014410FB01995F
:102770001499012900F0EF810299B2F9025091F900
:1027800001C00699B3F9020015FB0C6691F901101E
:1027900010FB0C7715FB014410FB019914990229D9
:1027A00000F0E281029D0699B3F9040091F902104C
:1027B000B2F9042095F9023010FB019912FB014493
:1027C000E91C12FB036610FB03770291049B0020B7
:1027D00053F8081C4FF080430D900C9321EAE172EE
:1027E000059B814206FA02F653F8083CDDE90CAB82
:1027F000C3FB06AB55464FEAD57242EA4B030DDCEC
:10280000494201228A40013A03EA02000B414FEAA1
:10281000620248BF01329042C8BF01332B9A134471
:102820004FF080420E92079A9342B8BF134600229F
:102830000F92089A9342A8BF1346099A02F8023CE5
:10284000049B53F8081C059B002953F8082C21EA27
:10285000E173DDE90E5607FA03F3C2FB03564FEAB4
:10286000D57242EA46030DDC494201228A40013A10
:1028700003EA02000B414FEA620248BF0132904274
:10288000C8BF01332B9A13444FF080421092079A2D
:102890009342B8BF134600221192089A9342A8BFF0
:1028A00013460A9A02F8023C049B53F8041C059B49
:1028B00021EAE172002953F8043C04FA02F4DDE94C
:1028C0001056C3FB04564FEAD57242EA46030DDCAC
:1028D000494201228A40013A03EA02000B414FEAD1
:1028E000620248BF01329042C8BF01332B9A1344A1
:1028F0004FF080421292079A9342B8BF13460022CB
:102900001392089A9342A8BF1346099A02F8013C11
:10291000049B53F8044C059B24EAE472002C53F802
:10292000043C09FA02F2DDE91201C3FB02014FEA9D
:10293000D07242EA41030DDC64420122A240013A16
:1029400003EA020123414FEA620248BF0132914289
:10295000C8BF0133029915982B9A014413440B9A6E
:1029600002910999083202310B92099107998B4221
:10297000B8BF0B46059908310591049908310491B7
:1029800008998B42A8BF0B460A9901F8013C8B1CA1
:102990000A93189B93427FF47DAE1F991C9A0131D4
:1029A000CB0049001A441C922A9A1A442A922F9A60
:1029B0001A44309B0B442F9230931D9B0B441D9364
:1029C0001E9BDA0740F1C180159A2F9B169C5FEA87
:1029D0009208186804EB420E00F0CA8008F1FF3834
:1029E00075460146029F1FFA88F808F101084FEA70
:1029F000C80904EB090C57F8042BD4F800A02FFAEF
:102A000082F34FEA32222FFA82F2C2EA2346C3EA65
:102A1000024323FB0A0A2A6823FB02136068083575
:102A200055F8041C083426FB00A026FB0131644540
:102A3000E1D1029BCE44169403EB88030293159BCD
:102A400013F0030320D0029E012B169F96F900205D
:102A50003D88BEF8004015FB020014FB021113D0A4
:102A600096F90120022B7D88BEF8024015FB02007A
:102A700014FB021108D096F90230BC88BEF804207D
:102A800014FB030012FB03111C9B4FF080422A9C95
:102A90001D680023246825EAE576002D00FA06F07B
:102AA000C4FB00231C464FEAD27242EA44030DDC09
:102AB0006D420122AA40013A03EA02002B414FEA8B
:102AC000620248BF01329042C8BF01332B9A089D71
:102AD000D418309B4FF08042581C079B9C42B8BFD3
:102AE0001C460023AC42A8BF2C46309D2C701C9C79
:102AF0002A9D24682D6824EAE476002C01FA06F168
:102B0000C5FB01234FEAD27242EA43030DDC644263
:102B10000122A240013A03EA020123414FEA620284
:102B200048BF01329142C8BF01332B9A3090134401
:102B3000079A9A42B8BF1A461346089A9A42A8BF03
:102B40001A4613461D9A13701E9B309A134418465A
:102B500021B0BDE8F08F029B0133029336E6199B4A
:102B6000A146169A3746EDE5029B023302932DE605
:102B70000146134664E700BF2DE9F04F1D688BB096
:102B8000DDE9146BDDE919A855B30C469146DBF875
:102B90000000DAF80C10D4F810C04346E76806913C
:102BA00005903046CDF820C0D9F804E00797D9F851
:102BB00000C0CDF810E0A768CDF80CC0D4F804C070
:102BC000029727681699189ACDE9007C00F082FEDA
:102BD000DBF80000DAF80C10013D06448844DAD135
:102BE00000200BB0BDE8F08F002070472DE9F04FBA
:102BF000B3B027923F9A2690012A30913193DDF8A5
:102C0000008140F3AD833E9A1D46A8F110030E46A5
:102C100050103F9A23F00F03A8F10F04023A41002D
:102C2000299052083E981D94013200F00100209531
:102C3000259203F110020023289015923C9A3F98A8
:102C40001C923D9A00FB01F0219308F1FF331B9287
:102C50003C9A2F9308F1040304322E9008934FEA14
:102C600048001A9208F101033D9A24900432179605
:102C7000189319923F9A52001E92409B002B40F3EA
:102C80001F862F9A0026179B3746D418013B2246F1
:102C900013F9010F12F9011F9C4207440E44F7D1AA
:102CA000419B07FB03F31193419B06FB03F3169330
:102CB000279B5BB1219903EBC10253F83130119985
:102CC00052681944169B134411911693299A002AAD
:102CD00000F0F1853F9B0E920133209A179913441F
:102CE0001598DDF898C00144DDF80091CDE90F2377
:102CF000409B1F9108330393409B043B01931D9B12
:102D0000002B40F3D083159B119D63442C46029306
:102D1000DDE916369A46D6F80080DCF800702FFA06
:102D200088F12FFA87F056F809202FFA98F82FFA31
:102D300097F720FB01552FFA82FE27FB08552FFA43
:102D400092F220FB0E3327FB02335CF809002FFAC6
:102D500080F72FFA90F027FB014127FB0EAA20FBFA
:102D60000811D6F8048020FB02AA0898DCF8047049
:102D700056F800E02FFA87F22FFA88FB2FFA98F81E
:102D80002FFA97F722FB0B552FFA8EF427FB0855E5
:102D90002FFA9EFE22FB043327FB0E375CF800005F
:102DA0002FFA80F32FFA90F023FB0B1123FB04AAD8
:102DB00020FB0818B46820FB0EAA039ADCF8083040
:102DC000B0582FFA83F12FFA84FE2FFA94F42FFAD9
:102DD00093F321FB0E552FFA80FB23FB04552FFAAA
:102DE00090F021FB0B7723FB00775CF802202FFA91
:102DF00082F32FFA92F223FB0E8823FB0BAA22FB0D
:102E00000484F168103622FB00A0019A0CF1100C2A
:102E10005CF8043C56F802A02FFA83F82FFA81FEE2
:102E20002FFA91F12FFA93F328FB0E552FFA8AFB14
:102E300023FB01552FFA9AF228FB0B7723FB027331
:102E4000019F5CF807A02FFA8AF72FFA9AFA27FB5E
:102E50000E4427FB0B002AFB01442AFB020A029ABC
:102E600094457FF458AF1F9ADDF854B0D9450CEB68
:102E7000090140F3168318980BF1010192F90070D3
:102E80009CF900E00CEB000812F9096089451CF977
:102E900009001EFB07551EFB063317FB004416FBFB
:102EA00000AA40F3FC8202EB090118989CF901E0AA
:102EB0000CF1020791F901800BF102011CF90000ED
:102EC00092F9016089451EFB083318FB00AA1EFB1E
:102ED000065507EB090E16FB004402F1020040F311
:102EE000EA820CF103080BF1030110F909E008EB89
:102EF000090617F9090089459CF9027002961EFB24
:102F000000AA92F9026017FB0E3316FB004402F18F
:102F1000030017FB065540F393820CF104060BF1F6
:102F2000040110F909E09CF90370894518F90900BA
:102F300006EB0908029617FB0E3392F903601EFB9D
:102F400000AA16FB004402F1040017FB065540F3EB
:102F5000A682029E0CF1050810F909E00BF10501AB
:102F600016F9090008EB09069CF9047089450296D8
:102F70001EFB00AA92F9046017FB0E3316FB0044F7
:102F800002F1050017FB065540F35A820CF10606C4
:102F90000BF1060110F909E09CF90570894518F953
:102FA000090006EB0908029617FB0E3392F905603B
:102FB0001EFB00AA16FB004402F1060017FB065593
:102FC00040F36D82029E0CF1070E10F909700BF1AF
:102FD000070116F909000EEB09069CF906808945E0
:102FE000029617FB00AA92F9066018FB073316FB3E
:102FF000004402F1070018FB065540F321820CF152
:1030000008080BF1080110F9097008EB09061EF910
:10301000090089459CF907E0029617FB00AA92F97E
:1030200007601EFB073316FB004402F108001EFB7D
:10303000065540F305820CF1090E0BF1090110F958
:1030400009700EEB090618F9090089459CF90880FA
:10305000029617FB00AA92F9086018FB073316FBCB
:10306000004402F1090018FB065540F3E9810CF118
:103070000A080BF10A0110F9097008EB09061EF99C
:10308000090089459CF909E0029617FB00AA92F90C
:1030900009601EFB073316FB004402F10A001EFB09
:1030A000065540F3CD810CF10B0E0BF10B0110F91D
:1030B00009700EEB090618F9090089459CF90A8088
:1030C000029617FB00AA92F90A6018FB073316FB59
:1030D000004402F10B0018FB065540F3B1810CF1DE
:1030E0000C080BF10C0110F9097008EB09061EF928
:1030F000090089459CF90BE0029617FB00AA92F99A
:103100000B601EFB073316FB004402F10C001EFB94
:10311000065540F395810CF10D060BF10D0110F9E8
:1031200009E09CF90C70894518F9090006EB0908BB
:10313000029617FB0E3392F90C601EFB00AA16FBD9
:10314000004402F10D0017FB065540F3A881029ED2
:103150000BF10E0B10F909000CF10E0E16F9091007
:10316000D9459CF90D7002F10E0892F90D6010FB23
:1031700001AA17FB003316FB01440EEB090117FBF4
:10318000065540F38E8192F90E100CF10F009CF958
:103190000E6018F9092000EB090C1EF9097016FBE6
:1031A000015516FB023311FB074412FB07AA199ABB
:1031B0004FF08041002052F8042C049122EAE27B77
:1031C0001A990590002A51F8041C05FA0BF5DDE95F
:1031D00004671291C1FB056735464FEAD57040EA96
:1031E0004701029140F34181DDE9041290460992C2
:1031F00014921B9A4FF0804100255268069122EAF2
:10320000E2701C990795002A496803FA00F3DDE98A
:1032100006561391C1FB03564FEAD57343EA4603A2
:1032200040F31181DDE90656B646314632464FF08D
:10323000804504FA0BF40A9500250B95129DDDE9F3
:103240000A67C5FB0467F60F149C46EA470656FA60
:1032500004FB06EA080802D5099C01340994099C7C
:103260000AFA00F0139DA0454FF080440C944FF0F3
:103270000004C8BF0BF1010B0D94DDE90C67C5FB21
:103280000067F00F40EA470050FA02F201EA00013D
:10329000029848BF0EF1010E71454299C8BF013234
:1032A00001444298034400EB0B04024443988142DA
:1032B000B8BF01468342B8BF03468442B8BF044644
:1032C0008242B8BF024644988142A8BF0146834269
:1032D000A8BF03468442A8BF04468242A8BF024654
:1032E0000F984370054601701E982B180F93109B82
:1032F00003F8014C1A70034410930E9B013B0E938C
:103300007FF4FDAC209B2E9A13440193289B002B45
:1033100040F0D380179A2499219B0A4401331792D5
:10332000209A2193023220921C9A08321C921B9AF6
:1033300008321B921A9A08321A92199A0832199274
:10334000259A9A427FF499AC0846259B3099DDF87E
:10335000008103FB00123092319A02EB4303319358
:103360003F9BDB0768D53E9B002B65DD3F9B6FF0E5
:10337000404000214FF0010E18443C9B269A8000EB
:10338000DDF8C4C0419F1D183D9B1C18279B1844A5
:1033900002901846002800F09882029B1E68B8F13F
:1033A000000F0DDD309B02EB080B03F1FF3912F922
:1033B000013B19F901AF3B445A450AFB0366F6D1BC
:1033C0004FF08043D4F80090229329EAE97A2B68E1
:1033D000B9F1000F06FA0AF601934FF000032393A8
:1033E000019BDDE922ABC3FB06AB4FEADA7343EA8C
:1033F0004B030FDCC9F100090EFA09F6013E03EA9E
:10340000060A53FA09F34FEA660648BF0136B24589
:10341000C8BF0133429E01313344439EB342B8BF1B
:103420003346449EB342A8BF33468CF800303F9BDE
:103430009C443E9B8B42ADD1002033B0BDE8F08F61
:10344000DDF808C0B3E6524201219140013903EA98
:1034500001054FEA610E13414CBF0EF1010676469D
:10346000B5427FF7E4AE0133E1E65142012000FAB4
:1034700001F80298149108F1FF3850FA01F14FEA6F
:103480006805029100EA08022946099548BF013102
:103490008A427FF7AEAE029A01320292A9E6C44692
:1034A00085E68C4683E6DDE91632119D4FF0000B70
:1034B0009A462C46DAE4F44679E61D9B002B179BCE
:1034C00040F305821599E646119803EB01094099EE
:1034D000169A03EB01080C461D681E59DEF8001011
:1034E0002FFA85FB2FFA86FA2FFA81F72FFA95F536
:1034F0002FFA91F12FFA96F627FB0B0021FB05001E
:1035000027FB0A2221FB06215D68D8F80460DEF85B
:1035100004202FFA85FB2FFA86F72FFA82FA2FFA6A
:1035200095F52FFA92F22FFA96F62AFB0B0022FB62
:1035300005052AFB071122FB0611D8F808609F68D1
:10354000DEF808202FFA86F02FFA87FA2FFA82F891
:103550002FFA97F72FFA92F22FFA96F628FB0A55D0
:1035600022FB075728FB001122FB0611D8681033F5
:10357000DEF80C500EF1100E03EB04082FFA80FB5E
:1035800058F8046C2FFA85F22FFA86FA2FFA90F089
:103590002FFA95F52FFA96F622FB0B7725FB007094
:1035A00022FB0A1225FB06224B4595D1159D194693
:1035B0001190AC441692409BAB4240F3168191F9B6
:1035C00000000C469CF900206B1C119E409912FBD8
:1035D000006716986156119712FB010240999942B3
:1035E000169240F302819CF90120611894F90100C0
:1035F000AB1C91F90110264612FB0077169812FBBE
:1036000001024099119799421046169204F1020264
:1036100040F3EB8012F901E0EB1C9CF9022003342B
:1036200096F9021012FB0E0012FB017240991690DF
:103630009942119240F3D980645607469CF90320C1
:103640002B1D96F90300311D12FB0477119C12FB10
:103650000042409C16979C42119240F3C680085746
:103660006B1D9CF90420741D96F9041012FB007761
:10367000119812FB0102409916979942119240F35A
:10368000B4806056AB1D9CF90520B41D96F9051059
:1036900012FB0077119812FB01024099169799428C
:1036A000119240F3A2806456EB1D9CF90620F11D97
:1036B00096F9060012FB0477119C12FB0042409819
:1036C00016979842119240F390800C5605F108032A
:1036D0009CF9072006F1080196F9070012FB047710
:1036E000119C12FB0042409C16979C4211927CDD7B
:1036F000085705F109039CF9082006F1090496F919
:10370000081012FB0077119812FB010240991697DE
:103710009942119269DD605605F10A039CF909206E
:1037200006F10A0496F9091012FB0077119812FBB2
:103730000102409916979942119256DD605605F1A3
:103740000B039CF90A2006F10B0496F90A1012FBF0
:103750000077119812FB0102409916979942119235
:1037600043DD605605F10C039CF90B2006F10C04B7
:1037700096F90B1012FB0077119812FB0102409989
:1037800016979942119230DD605605F10D039CF9B0
:103790000C2006F10D0496F90C1012FB007711981D
:1037A00012FB010240991697994211921DDD605655
:1037B00005F10E039CF90D2006F10E0496F90D108B
:1037C00012FB0077119812FB0100409A16979A425B
:1037D00011900ADD9CF90E3096F90E10A25613FBDB
:1037E000010113FB027311911693199B0021119F84
:1037F00053F8040C4FF080432B912A9320EAE07297
:103800001A9B002807FA02F753F8043CDDE92A1254
:10381000C3FB071213464FEAD17141EA43010DDCA5
:10382000404201238340013B01EA030201414FEA88
:10383000630348BF01339A42C8BF01311B9B002478
:1038400058684FF080432D9420EAE072169C2C9328
:10385000002804FA02F41C9B22465B68DDE92C4533
:10386000C3FB024523464FEAD37242EA45030DDC0F
:10387000404201228240013A03EA020403414FEA36
:10388000620248BF01329442C8BF0133429A1144D8
:103890001344439A9142B8BF11469342B8BF1346AE
:1038A000449A9142A8BF11469342A8BF1346019A79
:1038B000117053702EE5209BDDF898C0019325E52B
:1038C000002316931193FFF7F3B9064667E51946EF
:1038D000002570E62DE9F04F97B098460692DDF886
:1038E00084E01393209B0FFA8EF60B900FFA83FC63
:1038F0001291CCEA0C4CDDE92592C6EA0646012A73
:1039000040F34682249A8A460121249F5442269AF3
:1039100027EAE777CDF804A0951EA9F11002A1408F
:103920000E9425F001034FEA490422F00F0214958A
:1039300043440C9410324C1E043345460F946410DB
:103940000D930346023508971344109211940A937D
:10395000631C079515930996069B002B00F0808346
:103960005968B9F10F0F53F8082B069340F37E8383
:10397000CDF884E0019FDDF82C80099EDDF828E079
:10398000D7F800B0D8F800404FEA3B2357F8095069
:103990004FEA342026FA83F326FA8BFB2CFA84F4C0
:1039A0002CFA80F024FB0B2226FA85FA20FB032B4D
:1039B0004FEA35257B6826FA85F224FB0A1120FBA5
:1039C0000215D8F8040007EB090A2CFA80F14FEA37
:1039D0003322DAF804404FEA302026FA83F32CFA37
:1039E00080F026FA82F221FB03B326FA84FB20FB47
:1039F00002324FEA3424BB6826FA84F421FB0B51CF
:103A000020FB0414D8F808B04FEA3321DAF808A0F4
:103A10004FEA3B2526FA81F12CFA8BFB2CFA85F52F
:103A200026FA83F32BFB032226FA8AF025FB0122D8
:103A3000FB684FEA3A2A103726FA8AFA2BFB004B2A
:103A400025FB0AB5D8F80C0007EB09014FEA332B28
:103A500008F110084FEA302451F8041C2CFA84F4C1
:103A60002CFA80F026FA8BFB26FA83F320FB032244
:103A700026FA81FA24FB0B224FEA312126FA81F142
:103A800020FB0A5524FB0151F0457FF479AF019BDF
:103A90001098DDF884E003440A9C0996484580F2BA
:103AA000178194F90050471C93F900A013F909807D
:103AB000B945209EF244F044354405FB0A2205FB3B
:103AC000081140F3058103EB090794F9015093F9BC
:103AD00001A097F90180871C3544F244F044B945B0
:103AE00005FB0A2205FB081103F1020540F3F080F3
:103AF00015F909A0C71C94F9025093F90280F24409
:103B00003544B945F04405FB0A1105FB082203F1D1
:103B1000030540F3DD8015F909A0071D94F9035052
:103B200093F90380F2443544B945F04405FB0A118A
:103B300005FB082203F1040540F3CA8015F909A02A
:103B4000471D94F9045093F90480F2443544B94573
:103B5000F04405FB0A1105FB082203F1050540F3BB
:103B6000B78015F909A0871D94F9055093F90580D0
:103B7000F2443544B945F04405FB0A1105FB08221F
:103B800003F1060540F3A48015F909A0C71D94F9B7
:103B9000065093F90680F2443544B945F04405FBDC
:103BA0000A1105FB082203F1070540F3918015F97E
:103BB00009A000F1080794F9075093F90780F2442F
:103BC0003544B945F04405FB0A1105FB082203F111
:103BD00008057DDD15F909A000F1090794F90850E1
:103BE00093F90880F2443544B945F04405FB0A11C5
:103BF00005FB082203F109056ADD15F909A000F1AA
:103C00000A0794F9095093F90980F2443544B945FB
:103C1000F04405FB0A1105FB082203F10A0557DDF4
:103C200015F909A000F10B0794F90A5093F90A80DD
:103C3000F2443544B945F04405FB0A1105FB08225E
:103C400003F10B0544DD15F909A000F10C0794F907
:103C50000B5093F90B80F2443544B945F04405FB11
:103C60000A1105FB082203F10C0531DD15F909A045
:103C700000F10D0794F90C5093F90C80F24435448F
:103C8000B945F04405FB0A1105FB082203F10D05B7
:103C90001EDD15F909800E3094F90D5003F10E0A5E
:103CA00093F90D70F04435448145774405FB0811C4
:103CB00005FB07220CDD94F90E0093F90E301AF97A
:103CC000094030447344744400FB032200FB041198
:103CD0004FF080430293089B9A4000230393239B59
:103CE000DDE90245C3FB02452B46E50F45EA4305E6
:103CF000249B002B40F3A581DDE90234A346204636
:103D0000A0464FF080430C9A0493089B99400023EF
:103D10000593239BDDE90467C3FB0167F10F229B39
:103D200041EA47011D4451FA08F800EA010748BF7B
:103D30000BF1010B5F45C8BF08F101089844019BD6
:103D400013440D9A0193279B9D42B8BF1D46984589
:103D5000B8BF9846289B9D42A8BF1D469845A8BF5E
:103D60009846079B03F8025C023303F8038C9A42DF
:103D700007937FF4F1AD149B12995B080C9A099E8E
:103D8000013303FB02121292139A02EB43031393C3
:103D9000269BDB0740F15181069B002B00F06A81D6
:103DA0001A68B9F10F0F40F36781A9F110030B9D59
:103DB0001B09013319010193129B8B465F18186888
:103DC00029684FEA302426FA80F026FA84F84FEA70
:103DD00031242CFA81F12CFA84F421FB002224FBFB
:103DE0000824D3F804806A684FEA382026FA88F855
:103DF00026FA80FA4FEA32202CFA82F22CFA80F16D
:103E000022FB084221FB0A209C68A9684FEA34285B
:103E10004FEA312226FA84F426FA88F82CFA81F146
:103E20002CFA82F221FB040122FB0811D86810351C
:103E300055F8042C10334FEA302426FA80F826FA7D
:103E400084F44FEA32202CFA82F22CFA80F022FB22
:103E5000081220FB0422BB42B1D10B991293019BA3
:103E600059441B010B91994540F3BD800B9D591C92
:103E7000129E95F90000894596F90040209F7444F0
:103E8000384404FB002240F3AE8095F90100991CF0
:103E900096F9014038448945744404FB002240F3FC
:103EA000A28095F90200D91C96F902403844894550
:103EB000744404FB002240F3968095F90300191D19
:103EC00096F9034038448945744404FB002240F3CA
:103ED0008A8095F90400591D96F9044038448945B3
:103EE000744404FB00227EDD95F90500991D96F9C6
:103EF000054038448945744404FB002273DD95F97C
:103F00000600D91D96F9064038448945744404FBDF
:103F1000002268DD95F9070003F1080196F90740D2
:103F200038448945744404FB00225CDD95F908009F
:103F300003F1090196F9084038448945744404FBAB
:103F4000002250DD95F9090003F10A0196F90940B4
:103F500038448945744404FB002244DD95F90A0085
:103F600003F10B0196F90A4038448945744404FB77
:103F7000002238DD95F90B0003F10C0196F90B4096
:103F800038448945744404FB00222CDD95F90C105B
:103F900003F10D0496F90C003944A145704400FB6F
:103FA000012220DD95F90D1003F10E0496F90D00A4
:103FB0003944A145704400FB012214DD95F90E102F
:103FC0000F3396F90E002C46394499457044354616
:103FD00000FB012207DD95F90F3094F90F109E4484
:103FE000CB1903FB0E22249B4FF08040002123EAD3
:103FF000E3739A40239BC3FB0201C30F43EA4102D0
:10400000249B002B0DDC5B4201219940013902EA1F
:1040100001001A414FEA610148BF01318842C8BF1F
:104020000132229B1344279A9342B8BF1346289A21
:104030009342A8BF1346139A1370002017B0BDE82F
:10404000F08F0E9A0F9B2B4015414CBF159A119A79
:10405000934213DD0135DDF844B0DDE90E8050E612
:10406000B9F10F0F1A4619463FF782AC019B0020A9
:104070000B9C13E51A4694E60023F4E6DDF844B001
:10408000DDE90E803DE600BF2DE9F043C3EA034CB5
:104090004FEA9208B8F1000F1AD047460E468646FE
:1040A0005EF8044B013F2CFA84F506F108064FEA4E
:1040B00034242CFA84F4C4EA2549C5EA044446F8B9
:1040C000049C46F8084CEBD101EBC80100EB8800DA
:1040D00012F0030210D090F900409BB2012A1C4458
:1040E0000C8009D090F90140022A1C444C8003D076
:1040F00090F9022013448B80BDE8F083000000009B
:104100002DE9F04FA1B006930B1E1F9017921E933E
:1041100040F38884411E531E1591C3180021029359
:104120001D91159B179993F901200129039240F3E2
:104130008B850133029813F9011F8A42B8BF0A46E2
:104140009842F8D10392DDF854800023C1460793CA
:10415000B4E04FF0804000218B4AC2FB0A010028E6
:1041600071F1000306DA6FF00042002312184B4190
:1041700010461946C20F42EA4102129911440A46FA
:104180004910D00702D50029A8BF0131019BC918E9
:1041900000F1BA814FF0804200237C48C0FB01232C
:1041A000002A73F1000104DA6FF0004000211218B8
:1041B0004B41D10F4FF080460027754841EA43013B
:1041C000744B4FF0F20A01F1E241A1F52521A1F271
:1041D0006C71C3FB0167F20F139B4FF0804642EAFC
:1041E0004702002719406C4B0EEA020E81EA0E01CD
:1041F000C3FB01673B46F60F0B9F46EA4306394077
:10420000664B002708EA06084FF0804681EA08015D
:10421000C3FB01673B46F70F294000264FF080455E
:1042200047EA43070F9B3B4059405D4BC3FB015698
:104230000C9BEA0F4FF0804519400D9B42EA460265
:10424000002613404FF080425940564BC3FB0156A5
:104250003346EE0F01EA0C010A9D46EA4306119B24
:10426000334059400023C0FB0123D00F29404FF0B9
:10427000804240EA43000E9B034059400023CAFBA2
:1042800001231E46D20F109B42EA46021940089BAA
:10429000144081EA0400184080EA0B0BCBF30B03B7
:1042A0004FEA2B3BB3F5006F079BA8BF0BF1010B47
:1042B0005B440793029B4B4500F02E81039A19F94A
:1042C000013F9B1A2B9A9A42F4DC2A9A03FA02F1D4
:1042D000069ACB0FB3EBD27F00F01A81324A4FF02F
:1042E000FF33B1F1004F65D10698884262D10024B6
:1042F0004FF0FF352D4B4FF4003AAC46A6461293D3
:10430000A3462B4BA04621462246204608950A95F7
:10431000109513950D941194019319A7D7E900678F
:10432000CDE90B55CDE90E44CDE90467012686425F
:10433000B8BF0AF1010A914200F0E2801A484FF03A
:10434000FF31DDE9042312184B41002A10461946BB
:1043500071F1000306DA6FF00042002312184B419E
:1043600010461946C20F42EA41021AEB020A7FF5D3
:10437000F0AE0D484FF0FF31EEE600BFAFF3008026
:1043800000010040FFFF1F00ABAAAA2A94A8F57005
:1043900011FE0A007BBEAF63F2CBA24D6CAC162FB0
:1043A000A4AA5211B72A5802010000C0F8FFFF0169
:1043B000E0FFFF0F0698C0FB0123002A73F1000104
:1043C00004DA6FF00040002112184B41D00F4FF07B
:1043D0008044002540EA430040F07F43191A5B0106
:1043E00003F18053C1F3006EC3FB0345002C01931E
:1043F0000EF1FF3275F10003139204DA6FF00046FC
:104400000027A4197D41E20FC1F3007C4FEAE57853
:1044100042EA4502A2FB024502FB08F6129205EBB6
:10442000460514F1804645F100073346002E3C4610
:10443000CDE9083477F1000308DA6FF00046002771
:10444000DDE908349B197C41CDE90834019DB0FABF
:1044500080F0089CC1F34076EF1705FB08F84FEA9F
:10446000D47AA5FB023402FB07884009C1F38065BA
:10447000C1F3C067C0F1000BCEF1000ED20F2BF0DC
:10448000004BCDE90434099BC1F38074C1F3406152
:104490004AEA430A059B4344C1F100080593431EC1
:1044A0000AF003005FEAAA0A089304F1FF33C4F19B
:1044B00000041093C5F1000305F1FF350F93C7F118
:1044C00000030D9307F1FF330C93C6F100030E9325
:1044D00006F1FF330A9301F1FF330B93019B4FEA7F
:1044E000D371CCF100030CF1FF3C11937FF51EAFAB
:1044F00002268642B8BF0AF1010A91427FF41EAF3C
:104500004FF0804000211CE7974A4FF0FF3344E60C
:104510004FF080420023E4E6079A002A00F09783D8
:10452000B2FA82F36FF00044002502FA03F8C3F1F7
:10453000230308F1004816934246D317591C08BFBD
:10454000B8F1004F00F0858318F10048874943F126
:1045500000095FEA69094FEA3808C8F10000A8FBC2
:10456000012301FB090180480B4480184FF0FF3103
:104570000246594100280B4673F1000101DA021985
:104580006B41D60F46EA430606F15A3E4FEAEE7BF0
:104590000EFB09F3AEFB0845F24608FB0B3314F1A2
:1045A00080401D4445F10001002871F1000304DA48
:1045B0006FF00042002380185941C20F4FF0000CE9
:1045C00042EA4102D2F1005240F15083664C4FF072
:1045D000FF3502FB0BF1D717A2FB0A230AFB0710DA
:1045E00012EB040A034443EB050BBAF1000F7BF115
:1045F000000306DA6FF0004000211AEB000A4BEBD3
:10460000010B4FEADA7646EA4B06B6F1604FCCBFB3
:10461000B6004FF000467644F70F674500F02E8352
:10462000514C4FF0FF3506FB09FEF117A6FB08239E
:1046300008FB01EE12EB040A734443EB050BBAF1DD
:10464000000F7BF1000306DA6FF0004000211AEB47
:10465000000A4BEB010B4FEADA7141EA4B01C1F161
:104660000051B7EBD17F00F005833F4A4FF0FF3395
:10467000C1FB0623002A73F1000104DA6FF0004049
:10468000002112184B41D10F41EA4301B1F1005F03
:104690004FEA810380F2CD82B1F1604FD8BF4FF075
:1046A00000431E44F70F674500F0CA822E4C4FF0BE
:1046B000FF3506FB09FCF117A6FB082308FB01C820
:1046C000434412EB040843EB0509B8F1000F79F1FC
:1046D000000306DA6FF00040002118EB000849EBF8
:1046E00001094FEAD87141EA4901C1F10051B7EB24
:1046F000D17F00F0C7821C4A4FF0FF338E4240F05A
:104700007E82B6F1004F40F07A826FF000431E4483
:10471000B6F1804FC0F26A826FF000430793179B97
:10472000002B40F37081079B002BC0F2AF824FF04B
:1047300080430024CDE91A341F9801222C99179B3D
:10474000091AD31ADDE915B00B4402998240CDF85D
:1047500004B003EB010A013AD3465310189219939F
:1047600001331C933CE100BF010000C0C4C3C3C3BC
:104770002A9B069A9940CB0FB3EBD27F00F0308290
:10478000AD4A4FF0FF33B1F1004F40F06B81069816
:10479000884240F0678100214FF0FF34A74B4FF46F
:1047A0000032A2462546119308468C460E460F4617
:1047B000A34B1494089110910FF27429D9E9008940
:1047C000CDE90E44CDE91244CDE90A11CDE90C1131
:1047D000CDE904894FF0010EBE45B8BF0132B445A2
:1047E00000F0DE81944E4FF0FF37DDE9048918EBCD
:1047F0000608464649EB0709002E4F4679F1000CA2
:1048000009DA6FF000484FF0000918EB060849EB91
:10481000070946464F464FEAD67848EA470812EB62
:10482000080800F1D9814FF080460027854AC2FB75
:104830000867002E77F1000209DA6FF000484FF0A8
:10484000000918EB060849EB070946464F46F20FE8
:10485000119E42EA4702164432467610D20702D52C
:10486000002EA8BF0136F31800F1B2814FF0804648
:104870000027754AC2FB0367002E77F1000304DAB4
:104880006FF000420023B6185F414FEAD67C4FF02C
:1048900080484FF000096D4A4CEA470C6C4FF223F8
:1048A0000CF1E24CACF5252CACF26C7CC7FB0C890E
:1048B00047460CEA0505FE0F002746EA4906304048
:1048C0004FF0804645406348C0FB05674FEAD67EFF
:1048D00005EA0A0A4FF080464EEA470E00274FF0DD
:1048E000804501EA0E018AEA010A5B49C1FB0A67B9
:1048F0001299F00F4FF080460AEA010A089940EA3F
:104900004700002701404FF080408AEA010A5349DE
:10491000C1FB0A6713994FEAD67C00260AEA010A0E
:104920000A994CEA470C01EA0C0C4D498AEA0C0A38
:10493000C1FB0A56ED0F0C990AEA040A45EA46053E
:1049400029408AEA010A0021C2FB0A01149A4FEAAF
:10495000D07E0AEA020A0B9A4EEA410E4FF08041DD
:1049600002EA0E0E00228AEA0E0AC3FB0A1213465E
:10497000CD0F0E9945EA43050D9B0AEA010A2B402B
:104980008AEA030A0F9B0AEA0301109B5940079B1E
:10499000B3F1004F40F00B818B4240F008816FF083
:1049A00000431C98189A19991A4031EA230128BF2C
:1049B00001461698914243FA00F3B8BF0133803B99
:1049C00013F17F0FC0F2F0807E2B00F30D815BB2FC
:1049D0008BF800300BF1010BDDE90123934212D07B
:1049E000019B13F9011F0193039BC91A2B9B8B4257
:1049F0007FF7BEAE80230BF1010B0BF8013CDDE924
:104A000001239342ECD10299179A1D9B08461599F0
:104A10000133104411441E9A1D939A42029015913D
:104A20007FF47FAB21B0BDE8F08F00BFAFF3008013
:104A300000010040FFFF1F00010000C0F8FFFF0160
:104A4000E0FFFF0FABAAAA2A94A8F57011FE0A0096
:104A50007BBEAF63F2CBA24D6CAC162FA4AA521151
:104A6000B72A58020698C0FB0123002A73F10001FF
:104A700004DA6FF00040002112184B41D10F4FF0C3
:104A80008044002541EA430141F07F435A1A5B010B
:104A9000C2F3407EC2F3C06C03F18053C2F3806066
:104AA0000EF1FF36C2F3406AC3FB0345002C149697
:104AB0000CF1FF36139600F1FF36129675F10006E1
:104AC00004DA6FF000460027A4197D41E60FEF17C6
:104AD00046EA4506A6FB064506FB07F8119605EBD8
:104AE000480514F1804845F1000944464D46002C24
:104AF000CDE9084579F100040ADA6FF00044002599
:104B000018EB040849EB050944464D46CDE9084534
:104B1000089C03FB07F7B1FA81F14FEAD478A3FBB5
:104B200006454909CDE90445DD17099C06FB0579D1
:104B3000CEF10007C2F3807548EA44080B97CCF128
:104B40000007C2F30074C2F300620A97474248426A
:104B500001390897F60F0F91691E059F20F000405C
:104B60000E9169424F4410900D9150426142551E82
:104B70005FEAA80205970C9108F00307CAF100014B
:104B800004F1FF344FEAD37C0AF1FF3A7FF522AEFD
:104B90004FF0020EBE45B8BF0132B4457FF422AEDD
:104BA0004FF08046002720E66FF07F0310E7DDE935
:104BB0001A45C1FB0345002C75F1000304DA6FF0C0
:104BC0000040002124184D41E20F42EA4503E8E687
:104BD000314E4FF0FF374CE62F4E4FF0FF3725E6B2
:104BE0004FF080420023CEE57F23F1E6B6F1404F3F
:104BF0004FEA4603D8BF4FF0004307938FE5C1FB50
:104C00000623002A73F1000104DA6FF0004000214E
:104C100012184B41D10F41EA4301B1F1005F4FEA55
:104C20008103BFF672ADB1F1604FD8BF4FF00043C2
:104C30006DE56FF000431E44F70F67457FF436AD16
:104C40004FF08044002534E500293FF77CAA032378
:104C500016934FF0010C4FF05A3E4FF0FF384FF0D3
:104C6000FF390E4A4FF05A3A4FF0000B4FF0804494
:104C70000025AEE44FF080420023F9E44FF0804479
:104C80000025D0E44FF08042002337E5024B4FF07F
:104C9000FF34CDE91A344FE5010000C001000020C7
:104CA000102803D8024B53F8200070470148704782
:104CB00058DD07089CDD07082DE9F04F002B89B06F
:104CC0000190DDF850B01298169CC0F28A818B4298
:104CD00080F287810028C0F28481904280F2818135
:104CE00003EB0B058D4200F37C81159D4519954220
:104CF00000F37781082C02D0102C40F07281082C30
:104D0000159A00F0B180002A40F388804FEA4109EB
:104D1000ABF102015A000BF1FF334FEA4B0ADDF809
:104D20004CC000FB0920019A03934B081044CDF8B6
:104D300050B00133D3466446CA469A004FF0000E85
:104D40005B000646DDF850900692079340EA0402A5
:104D50000346214612F0020264D0B9F1000F54DD7F
:104D60001399371D0CF10402ACEB01050199964231
:104D700038BFBC45A6EB01016CD3B9F10D0F69D961
:104D8000C6F34007039A002F0CBF012302239A4267
:104D9000C0F03381002F59D0821C03880592A21CD9
:104DA00023800292012204927A00A9EB07070023D4
:104DB00011442A44019D4FEA57082944139D2A446F
:104DC000013351F8045B984542F8045BF8D827F0AA
:104DD00001020499059D530011449742884605EB52
:104DE0000301049102990B440FD008F101070499C3
:104DF00035F81250023301F10208B945029921F841
:104E0000125002DDB8F800201A800EF1010E159B39
:104E100050445C4473455644DC4497D1002009B0AB
:104E2000BDE8F08F039D002D0BDD0699221F45186C
:104E300053F8041BAB4242F8041FF9D1069AA1189B
:104E4000079A9145E1DD1B880B80DEE70294CDE9EE
:104E50000470A9E7A21E00EB0B0533F8021BAB425E
:104E600022F8021FF9D1D0E7002AD7DDABF1030207
:104E700000FB0130ABF10403139C04924FF00008D7
:104E8000019A23F00303A646024404335042CDE9BD
:104E90000213014642EA0400134610F003007DD0DD
:104EA000BBF1000F69DD271D101D139D019E84427B
:104EB00038BFBA42A4EB0505A2EB0606C0F093800A
:104EC000BBF10B0F40F28F8011F0030C00F08780D4
:104ED0001078BCF1010F02F1010304F1010E207002
:104EE0007DD05078BCF1020F02F1020304F1020EF2
:104EF000607074D0907804F1030ED31C4FF0030A55
:104F0000A0706644019F6544ABEB0C0C3E44139FBC
:104F100000204FEA9C093D44013056F8047B484587
:104F200045F8047BF8D32CF003008445824403EB5E
:104F300000060EEB000520D01F5C0AF101039B4523
:104F40000EF8007019DD0AF1020370789B45687055
:104F500013DD0AF10303B0789B45A8700DDD0AF15B
:104F60000403F0789B45E87007DD0AF1050A337900
:104F7000D3452B7101DD73796B71029B08F1010838
:104F80005C441A44C91A159B43453FF447AF42EAB3
:104F900004001346A64610F0030081D1049D002DA5
:104FA0000BDD039D201F561953F8045BB34240F8F4
:104FB000045FF9D1039804EB000E8345DDDD451C49
:104FC0001E78AB458EF80060D7DD02305D788345F2
:104FD0008EF80150D1DD9B788EF80230CDE7E246A5
:104FE0008FE709481BE7601E0BEB020613F8015B15
:104FF000B34200F8015FF9D1BFE7028800F102086F
:10500000A31C2280FEE600BF10FCFFFF2DE9F04F3D
:10501000012A8DB00A9040F389801898920300FB12
:1050200001F089030290179892FBF0F20992002890
:10503000169A91FBF2F2049274DD169A002A71DD41
:10504000189A002A6EDD0693013A189B169903FB05
:1050500001F30B9300230893029BD31805934FF49D
:1050600000530793079A0999930BC2F30D0A0A4458
:105070000A99069CCAF5804B0792029A03FB021319
:10508000002203934FF40053CDE90032189A009B9D
:1050900004EB0209049A9D0BC3F30D0E1344CEF5E5
:1050A00080480093189B03FB05F5EF18029B05F160
:1050B000FF3CEE18059B1D44039B9C441F441E446B
:1050C0001D441CF8010F17F8012B08FB00F015F820
:1050D000011F16F8013B00F500500EFB01F10EFB1D
:1050E000020201F50051920B08FB03130BFB02F2C5
:1050F0009B0B02F500520AFB03239B0B04F8013BB8
:105100004C45DED1019B169A01339A420193BDD1E1
:10511000069A0B99089B0A4401330692179A089342
:105120009A429FD100200DB0BDE8F08F0048FAE709
:1051300010FCFFFF0020704708B514F095FE00201A
:1051400008BD00BF08B514F07DFE002108BD00BFFA
:1051500030F0DCBE2FF084BE30F0E0BE07EE900AE7
:105160000448B7EEE77A08B553EC172B0FF092F925
:1051700008BD00BF40DE070841EC170BB5EE407BD1
:10518000F1EE10FA03D10021116019607047F8B5F3
:1051900014461A461D462FF0A3FB4FF00046002789
:1051A0009FED117B41EC160B26EE077BB8FE477B8B
:1051B00051EC170B2CF08CFB864277EB01030FDBD5
:1051C000B9422B6808BFB04203D101334FF0804091
:1051D0002B601F3302DA002318462B602060F8BDD5
:1051E0002FF010FEAFF30080000000000000E0414F
:1051F00070B5049D0124069EC5F11F0541EC170BF7
:1052000043EC162B04FA05F327EE065B07EE103A83
:10521000B8EEC77B9FED266B27EE057BB4EEC67B11
:10522000F1EE10FA10DCB7EE006BB4EEC67BF1EED7
:1052300010FA38DDB5EE407BF1EE10FA06D100230E
:10524000059A1360336070BDB0EE467B32464FF076
:105250000044002551EC170B2FF042FB9FED167B0D
:1052600041EC160B26EE077BB8FE477B51EC170B83
:105270002CF02EFB844275EB010314DBA94233684A
:1052800008BFA04203D101334FF08040336013F1D7
:105290001F0F04DA0023059A3360136070BD059A6E
:1052A000002B1060CFDA2FF0ADFD00BFAFF3008010
:1052B0000000C0FFFFFFDF41000000000000E041F0
:1052C00038B50124121A0D4604FA00F0A2F12001AB
:1052D000431E04FA01F104FA02F02DED028B08EEF0
:1052E000103AC2F1200324FA03F3B8EEC88B194335
:1052F0002CF058FAC5F1200341EC170B28EE078B70
:10530000A5F1200124FA03F304FA05F004FA01F1EF
:1053100019432CF047FA41EC170B88EE077BBDECE4
:10532000028BBBFE477BFDEEC77B17EE900A38BDB4
:105330000B6819688A4212DA002A10DB043353F82A
:10534000221000290BDB836810B41BB9036D5DF8D4
:10535000044B184703EB81105DF8044B70470020A5
:10536000704700BF4B681968914212DD002A10DBBC
:10537000043353F8221000290BDB836810B41BB9E7
:10538000036D5DF8044B184703EB81105DF8044B87
:1053900070470020704700BF0B6819688A4212DA14
:1053A000002A10DB043353F8221000290BDB83683A
:1053B00010B41BB9036D5DF8044B184703EB811063
:1053C0005DF8044B70470020704700BF00000000EC
:1053D00010B5D1ED036A82B0044692ED036A23B39F
:1053E00093ED037AB7EEE63AB7EEC64A049BB7EE02
:1053F000C77A93ED035A93EE047BB7EEC55A9FED3F
:105400001A4BB0EEC77B87EE053BB4EEC43BF1EE22
:1054100010FA0AD9164A4FF4A2734469009215494A
:10542000154AA047012002B010BD66EE866AF5EE6F
:10543000C06AF1EE10FA05DA2046104A646940F2BB
:105440005113EBE7049BB7EEE67A002093ED036A75
:10545000059BB7EEC66A87EE065B83ED005B02B084
:1054600010BD00BFAFF300807B14AE47E17A943FDC
:10547000DCDE0708C4DE070844DE070800DF070893
:1054800070B5147882B0032C21D0092C0DD0072CD4
:1054900000F08B80474A4FF4C2734469464900923A
:1054A000464AA047012002B070BD7F256FF07F06FD
:1054B0000129D2ED037A146912D0032952D00229AE
:1054C00026D01E600020069B1D6002B070BD012921
:1054D0004FF0FF054FF00006D2ED037A1469ECD1CE
:1054E000DFED376A002086EEA77AB7EEC77AB8FEFE
:1054F000477BB7EEC77BBDEEC77A17EE102A224472
:10550000B242B8BF32461A60069B1D6002B070BD41
:10551000BFEE007A0020F7EE006A87EE276A86EE7B
:10552000A77AB7EEC66AB8FE466BB7EEC66BB7EEA3
:10553000C77AFDEEC66AB8FE477BB7EEC77B16EEAC
:10554000901A2144FDEEC77AB14217EE902AB8BFF7
:10555000314619602244069BAA42A8BF2A461A6017
:1055600002B070BD9FED167AF1EE086A002087EE5A
:10557000276A86EEA77AB7EEC66AB8FE466BB7EE24
:10558000C66BB7EEC77ABDEEC66AB8FE477BB7EE0C
:10559000C77B16EE101A2144BDEEC77AB14217EE52
:1055A000102AB8BF31461960D4E747F6FF75054E9B
:1055B0007EE700BF1CDF0708C4DE070844DE0708DB
:1055C000000000000080FFFF2DE9F04F91F83080CF
:1055D0000446B8F1010F2DED048B8BB012D00125DC
:1055E0008249834AE123CDF8088044690395CDE9D7
:1055F0000021804A8049A04728460BB0BDEC048BAF
:10560000BDE8F08F92F830701646012F0CD0774924
:10561000E3237A4ACDE902784469CDE90021754A4D
:105620007549A0474046E8E79A46536B43B9744A28
:10563000ED236469734900926E4AA0473846DCE75F
:10564000D3F800B0BBF1000F02D16F4AEE23F0E7B0
:10565000DBF800200D46012A07DD097809291AD058
:10566000072918D0694AF323E3E7189B91ED039AC1
:1056700093ED038A209B002B47DC2B78032B26D04D
:1056800003F0FB02032A18D0A3F10902534253414D
:105690009BB91846B1E7317809295CD009265C4DE1
:1056A0005C4A2046F42302910396CDE90025646903
:1056B000504A5149A04701209FE7199B2046189A5C
:1056C00019781D9B00931C9BFFF7DAFE95E70AAF44
:1056D000189B4FF000084FF00009009332465346E4
:1056E0002946204667E902890197FFF771FE0028E5
:1056F00083D107AB1A9ADDE90801FFF73DFD079A50
:105700001B9952422B780A60BAE71F9BB7EEC99AE1
:105710001E9FB7EEC88AA3F10409209B07EB8308FC
:1057200008AB059307AB04939BED017AB7EEC77AFC
:10573000DDE9042327EE097B87EE087B51EC170B8C
:10574000FFF71AFDDDE9072347F8042BB84549F8B0
:10575000043FE9D191E72099914209D0209E20464B
:105760002D4DF5232D4903960091CDE901529EE779
:105770009A68B36803EB82035A68209B934206D071
:1057800003922046264DF8232349209AECE7189BE4
:105790000BF1040B95ED039A93ED038A1E9BB7EE74
:1057A000C99AB7EEC88A1F1F209B0BEB83091F9B6A
:1057B000A3F1040808AB059307AB0493BBEC017A93
:1057C000B7EEC77ADDE9042327EE097B87EE087B75
:1057D00051EC170BFFF7D0FCCB45DDE9072347F869
:1057E000042F48F8043FE9D147E700BF40DF07082E
:1057F0005CDF070844DE070824DF070878DF0708B6
:1058000094DF0708C4DE0708A8DF0708C4DF07081D
:1058100000E007080CE007081CE007082CE0070878
:1058200050E0070810B40468002C0CDD0246002389
:105830000120013352F8041FA34201FB00F0F8D10C
:105840005DF8044B704701205DF8044B704700BFC2
:105850003821836B184700BF294A0B682DE9F04FA8
:105860000E461168F3B0426D03EB8103044659689C
:105870009047244A3368054611682046626D03EB61
:10588000810359689047336880461A68032A27D1F4
:105890001D492046626D096803EB810359689047F2
:1058A00081461A4A204673681168626D03EB8103D2
:1058B000596890472A7A037A07469A4213D01449C6
:1058C0002046144D03934FF4867300911249CDE99D
:1058D0000152124A6469A047012073B0BDE8F08FFD
:1058E0004FF00009DDE798F8080090421AD02046F2
:1058F00063690B499847012073B0BDE8F08F00BF82
:10590000F8E2070800E30708F4E20708FCE20708EA
:1059100038E1070828E1070824DF0708B0E0070896
:1059200044E107080128D6E9046100F0B98109289B
:1059300040F0D083D1E90423012A6193609202D11F
:10594000012B00F01A84324664A800F0C9FE736A85
:10595000294642A82993B36A2A9302F0D3FF2B6801
:10596000414648A8249302F0CDFFD8F800304946BC
:105970004EA8259302F0C6FFD9F80030394654A846
:105980001F9302F0BFFF3B68DDF808C12093BDF90B
:105990009A31BCF1050FDDF8A4B12B93BDF99C3110
:1059A000BDF99EA12C93BDF9A031489F1293BDF97A
:1059B0009231549E2D93BDF9943143982E936B9B55
:1059C00021936E9B22936F9B239340F37B83052E41
:1059D0000168559B40F370831A689142A8BF114635
:1059E000BCF1050F279140F36583C568052F499ADF
:1059F00040F35383D16814688D42A8BF0D462946F1
:105A00001095052ECCBFD96858998C42A8BF0C467A
:105A1000BCF1050F1D9440F33B83416816918168EA
:105A20000A91052F40F32F835168D2F80890119105
:105A3000052E40F305835A689B682892269300231D
:105A4000C8461893189B279A934280F2DB82289BC2
:105A5000002B40F307812E9B5B421E9300231C9377
:105A6000269B002B40F3F3802D9B5B421593002374
:105A70001B931D9B002B40F3DF80299B043B1A9353
:105A80002A9B043B199300231793119B002B40F38F
:105A9000F4804B9900204A9BDDF830911E9E03FB59
:105AA00001F4449A01FB09F3189909FB04F40C96DC
:105AB00002FB01621799259E459D01FB046415991F
:105AC0001393013C469B05FB02110D94249C05FB9E
:105AD00003F20F9003FB01410AFB03F30E911299AD
