:020000040804EE
:1000000000000824710A0708BD0A0708115B0608EA
:10001000175B06081D5B0608235B0608000000004E
:100020000000000000000000000000009DE2050844
:10003000BD0A07080000000037E3050847E305088C
:10004000BD0A0708BD0A0708BD0A0708BD0A070858
:10005000BD0A0708BD0A0708BD0A0708BD0A070848
:10006000BD0A0708BD0A0708BD0A0708BD0A070838
:10007000BD0A0708BD0A0708BD0A0708BD0A070828
:10008000BD0A0708BD0A0708BD0A0708E1190708E5
:10009000F1190708ED190708FD190708BD0A070837
:1000A000BD0A0708BD0A0708BD0A0708BD0A0708F8
:1000B000BD0A0708BD0A0708BD0A0708BD0A0708E8
:1000C000BD0A0708BD0A0708BD0A0708BD0A0708D8
:1000D000BD0A0708BD0A0708BD0A0708BD0A0708C8
:1000E000BD0A0708BD0A070800000000BD0A07088E
:1000F000BD0A0708BD0A0708BD0A0708BD0A0708A8
:10010000BD0A07088D070708BD0A0708BD0A0708CA
:10011000BD0A0708BD0A0708BD0A0708BD0A070887
:10012000BD0A0708BD0A0708BD0A0708C5A20508D9
:10013000BD0A07089F140608BD0A0708BD0A07087C
:10014000BD0A0708BD0A0708000000000000000003
:10015000BD0A0708BD0A0708BD0A0708BD0A070847
:10016000BD0A0708BD0A0708BD0A0708BD0A070837
:10017000BD0A0708BD0A0708D1A205080000000053
:10018000BD0A0708BD0A0708BD0A0708BD0A070817
:10019000BD0A0708BD0A0708BD0A0708BD0A070807
:1001A000BD0A0708BD0A0708BD0A0708BD0A0708F7
:1001B000BD0A0708BD0A0708BD0A0708BD0A0708E7
:1001C000BD0A0708BD0A0708BD0A0708BD0A0708D7
:1001D000BD0A0708BD0A0708BD0A0708BD0A0708C7
:1001E000BD0A0708BD0A0708BD0A0708BD0A0708B7
:1001F000BD0A0708BD0A0708BD0A0708BD0A0708A7
:10020000BD0A0708BD0A0708BD0A0708BD0A070896
:10021000BD0A0708BD0A0708BD0A0708BD0A070886
:10022000BD0A0708BD0A0708BD0A0708BD0A070876
:10023000BD0A07086D0A0708BD0A0708BD0A0708B6
:10024000BD0A0708BD0A0708F5A70508BD0A070883
:10025000BD0A0708BD0A0708BD0A0708BD0A070846
:10026000BD0A0708BD0A0708BD0A0708BD0A070836
:10027000BD0A0708BD0A0708BD0A0708BD0A070826
:10028000BD0A0708BD0A0708BD0A070800000000EC
:10029000BD0A0708BD0A070810B5054C237833B915
:1002A000044B13B10448AFF300800123237010BD49
:1002B00020210024000000003494090808B5034BF5
:1002C0001BB103490348AFF3008008BD00000000E4
:1002D0002421002434940908154B002B08BF134B2C
:1002E0009D46A3F5803A00218B460F461348144AD9
:1002F000121A3CF05DFA0F4B002B00D098470E4BC2
:10030000002B00D098470020002104000D000D486C
:10031000002802D00C4826F02BFB3BF047FD2000C4
:10032000290020F007FC26F03BFD00BF000008007C
:100330000000082400000000910A06082021002483
:10034000A06B01247169060800000000704700BF1F
:10035000036818474A688B6810B40C6842600460F0
:1003600083605DF8044B704742F210701DF040BE90
:1003700010B50023164C174A82B004F1400019460C
:100380002260236126F0BEFF04F1540026F058FFDE
:1003900000234FF4005220212046009327F066F8F6
:1003A0000D4A20460D4902B0BDE8104026F0DEBAE5
:1003B000236913B19B680A48984733F005FE094842
:1003C00026F07EFF084826F0DCFFF1E7FAE700BFE1
:1003D0003C210024C475090800000024A975060802
:1003E00040210024902100247C21002410B584B0F9
:1003F0004FF4E1310F481BF0B3FC04AC0EF072F97E
:100400000D4900230D4A44F8101D21460C48019364
:10041000CDE9023227F036F8039B13B19B682046E2
:10042000984704B010BD039B13B19B6820469847C2
:1004300033F0CAFD7C920024E5E60408483D080834
:100440003C21002470B483B00346002540F60F36EB
:100450006C469E819D609D7384E8060094E80300CD
:1004600083E8050003B070BC704700BFF0B583B0EF
:10047000847B02AD05E9060034B9818940F60F326C
:10048000914203D00123837303B0F0BDD0E901266C
:100490009642F7D8921B019FBA42F3D39E42F1D302
:1004A0001D4603680446A6EB050203EB050000D0D9
:1004B00043B91BB13A4600993CF016F9A3681F44B2
:1004C000A760E1E7014638443CF00EF9236858196B
:1004D000EFE700BF8B7B9BB940F60F3210B48C89DD
:1004E000944206D001225DF8044BC0E900338A73C0
:1004F00070478A680B685DF8044BC0E900327047AA
:100500000023C0E9003370472DE9F00F190D84B0C6
:1005100014461D460091002140F2FF7A4FF0000B77
:1005200001914FF0FF37834E8446DDE9008945ECA9
:10053000174B08EA0A0809EA0B09B5EE407BCDE93A
:10054000028918EB060849EB0709F1EE10FA41D0D1
:10055000B9F1000F08BFB8F5806F6AD06FF00D06D3
:100560004FF0FF37B04579EB07010C99ACBF01267E
:100570000026002908BF002626B1B8F1100F79F136
:10058000000173DB6FF460704FF0FF31DDE902AB07
:100590001AEB000A4BEB010BBBF1000F08BFBAF1DD
:1005A000FE0F0DD224F060400021014308D1042148
:1005B000002345EC174BF7EEC77B17EE902A00E0BF
:1005C000082160468CF80010CCE9022304B0BDE895
:1005D000F00F7047B9F1000F4FF0FF3056494FEA66
:1005E000D37308BFB8F5806F00EA020A01EA050B71
:1005F00058D0B94508BFB04566D0B8F1100F79F1B1
:1006000000022EDA6FF00D064FF0FF37B04579EBA0
:10061000070266DB08F10F004BF38F2A40F3050059
:10062000820242EA0A02022142EAC332002392B263
:10063000C7E74FF0FF304049DE0F00EA020A01EA47
:10064000030B5AEA0B0343D04FF0000805F40029CE
:10065000CAF3080258EA090361D1002A67D012B22E
:1006600037E0DDF804A04FF4F842DAE74FF0FF3648
:1006700040F2FF3706EA020A07EA030B5AEA0B01C7
:1006800080D19E0A40F2FF3208F10F00DC0F02EA2F
:100690000608022180B2002348EAC43242EA8022DE
:1006A00092B28EE75AEA0B02DBD04FF0000805F455
:1006B0000029CAF3080258EA09012BD192B30FFAB4
:1006C00082FA4FF4F842ACE7DDE900129246A8E75F
:1006D000019A42EAC6320221002342F4F84292B261
:1006E0006FE7B6EB08001AF10008019A00F12A0A38
:1006F0004BF580190A30CAF1200128FA0AFA29FAC2
:1007000000F009FA01F14AEA010A4AEA000A0FFA7E
:100710008AFA86E742F4007A4FF4F84281E742F41D
:100720000072D6E74FF0010A4FF4F84279E7012250
:10073000CFE700BF01FCFFFFFFFF0F0030B583B024
:1007400004466D4685E80600982200213CF030F80A
:10075000204695E80600FFF775FE04F11402042315
:10076000C4F89420A37603B030BD00BF2DE9F04F4C
:1007700089B090F810C06E4686E80C00BCF1000FFE
:1007800033D109290F460546D0F8088017D00B2F22
:1007900019461A464FF0000331D00C2F28D19F2163
:1007A00008AA012703AC434602F8041D2846CDE9F8
:1007B000032794E80600FFF759FED5F8088005AA3C
:1007C000434696E8030082E80300284606CAFFF77E
:1007D0004DFED5F894104FF6FE738A889B1A012BB4
:1007E0000ADD013200238A802B7409B0BDE8F08F46
:1007F0000D2F1ED1BF21D3E703232B74F5E7002B68
:1008000008BF182922D2402319440DF11D09C9B28D
:100810004846441E00F8011C03AA4346A9EB040104
:1008200003942846049106CAFFF720FE0B2FD0D070
:10083000C3E7002B08BF18292CD3072F32D1002B78
:1008400008BF1F292ED12039C9B2A9E74FF0400BAC
:100850000DF11D090121DFF858A04846E9B1A0EBD0
:10086000010E140A00F8012D190A704544EA0364C8
:100870000B462246F5D10CF1010452EA0301E4B221
:1008800003D01AF80410A446E8E70CF11801594403
:10089000C9B2BEE77B01DBB2B6E70CF1010C5FFA2F
:1008A0008CF4EEE74FEA471B5FFA8BFBD0E700BF03
:1008B000543D08082DE9F04701218CB0064600910F
:1008C00008A8FFF721FE357C15B10CB0BDE8F08714
:1008D000DDE90A239DF820E0002BD6F808C008BF08
:1008E000182A22D2BEF1000F1FD1203A0DF11D07A8
:1008F000D2B23846441E03A900F8012C63463F1BC0
:1009000003943046049706C9FFF7B0FDD6F894105B
:100910004FF6FE738A889B1A012B33DD01320023C8
:100920008A8033740CB0BDE8F087002B0DF11D07F1
:1009300008BF1F2A2DD052EA030402D1BEF1000FD6
:100940002ADD4FF00109DFF858803846B9F1000F71
:100950000CD0A0EB090A110A00F8012D1C0A504521
:1009600041EA036123460A46F5D10C43691CAEEB0C
:10097000090EC9B214B9BEF1000F06DD18F80190D6
:100980000D46E3E703233374CCE7A5F10802D2B2A6
:10099000B0E7FF223846ADE7F7223846AAE700BFA6
:1009A000543D080870B4D0F894404FF6FE73A28806
:1009B0009B1A012B1ADD85680132002315F1660FA1
:1009C000A28003740ED800F18C02944212D004F17C
:1009D00008061A46C0F89460A381A560A17302744A
:1009E00070BC7047072370BC03747047032370BC4E
:1009F0000374704702220274F2E700BF0C29836877
:100A000070B5044686B00D4633D00D292BD0480171
:100A1000C0B206AA012601A902F8040D2046CDE9BC
:100A2000012606C9FFF722FDD4F894104FF6FE7395
:100A30008A889B1AB34218DDA0680132002310F1A6
:100A4000660F8A80237416D804F18C02914216D066
:100A500001F108061A46C4F894608B8188608D7392
:100A6000227406B070BDBF20D3E70323237406B001
:100A700070BD9F20CDE70723237406B070BD02220E
:100A8000EEE700BF2DE9F047077C86B057B9D0F8F4
:100A9000943000F11404A34207D09C79A14209D0FC
:100AA0000F23037406B0BDE8F0870423037406B077
:100AB000BDE8F0870229D3F80080846809D00C29AA
:100AC0004ED00D299B8844D10DF11509BF214E460A
:100AD00011E0A4EB080300251C46172B32D9072987
:100AE00046D1002D08BF1F2C42D1A3F120010DF1EA
:100AF0001509C9B24E460446701E154601AFA9EB52
:100B00000002019006F8011C43460292204697E835
:100B10000600FFF7ABFC6DB103A82146FFF7DAFC36
:100B2000DDE90323434520D3A3EB080302B142448C
:100B3000C5E90023D4F89430083BC4F8943006B0DB
:100B4000BDE8F08703EB41110DF11509C9B24E461E
:100B5000D1E7CC1E0025A4B2B3FBF4F39CB2BCE7F2
:100B60000DF115099F214E46C5E700231A46DFE720
:100B700054EA05030DF1150926D00123DFF850A032
:100B80004E46BBB1A6EB030E230A06F8014D4FEA11
:100B9000152C764543EA056365461C46F4D107F1FA
:100BA000010C54EA05035FFA8CFC07D01AF80C30EC
:100BB0006746E6E701375FFA87FCF7E71837FFB2C9
:100BC00007EB4111C9B296E717274E46F8E700BF79
:100BD000543D0808F0B5057C87B055B9D0F894406D
:100BE00000F11406B44206D0A4798C4207D00F223B
:100BF000027407B0F0BD0422027407B0F0BD1646BF
:100C0000FF210DF1140C012701AA8DF8141083683F
:100C10000446CDE901C706CAFFF728FC6EB121469C
:100C200003A8FFF757FCA268DDE9033191420AD31C
:100C30008D1A03B11344C6E90035D4F89430083B4B
:100C4000C4F89430D5E72B46F5E700BF70B5837B39
:100C500082B023B101240474204602B070BD047C2C
:100C6000002CF9D100F11403D0F894209A4203D05B
:100C70000A24204602B070BD6E460D46014630463D
:100C8000FFF728FC96E8030085E80300204602B041
:100C900070BD00BF2DE9F04347884C88D0F804E0D0
:100CA0004FEA8709D2F804C0A400D1F80480008874
:100CB00065464646A444C7B13A4633467146DFED21
:100CC0000F7A93ED007A013AF1EC016A2344E6EEE3
:100CD000877AF6D1E5EC017AAC4506F10406EAD153
:100CE0000138CE44E4D1BDE8F083DFED047A043668
:100CF000E5EC017AAC45DED1F2E700BF0000000070
:100D000007EE101A4388018803FB01F310B45468FE
:100D100042683BB1F2EC017A013B67EE877AE4EC82
:100D2000017AF7D100205DF8044B7047F0B5478891
:100D30004D68048846688FB1A4004FEA870E05EB22
:100D4000040C2A463B46314651F8040B013B106027
:100D50002244F9D1043576446545F2D10020F0BD36
:100D6000012990ED007A30B414D0041D0025012033
:100D7000F4EC017AB4EEE77AF1EE10FA02D5B0EEB7
:100D8000677A054601308142F2D182ED007A1D601A
:100D900030BC7047002582ED007A1D6030BC704782
:100DA000012990ED007A30B414D0041D00250120F3
:100DB000F4EC017AB4EEE77AF1EE10FA02DDB0EE6F
:100DC000677A054601308142F2D182ED007A1D60DA
:100DD00030BC7047002582ED007A1D6030BC704742
:100DE00000B52DED028B83B0019141B30B469FED11
:100DF0001A7AF0EC017A013BA7EEA77AF9D1DDED82
:100E0000017AF8EE677A0023C7EE276AF5EEC06A2A
:100E1000F1EE10FA05DA136003B0BDEC028B5DF859
:100E200004FBF5EE406AB1EEE68AF1EE10FA0BD45F
:100E300082ED008A03B0BDEC028B5DF804FB9FEDF0
:100E4000067A07EE901ADCE716EE900A019238F067
:100E5000F7F9019AECE700BF000000006AB19FEDCE
:100E6000077A30F9023B013A07EE903AF8EEE77A5A
:100E700067EE877AE1EC017AF3D170470000003821
:100E800021B30139F0B44908171D07EB810C118813
:100E9000043232F8023C890894454FEA93034FEA42
:100EA000810550F821604FEA830450F8237005F162
:100EB000040504F1040440F8217040F8236043590C
:100EC000015941510351E2D1F0BC7047704700BF56
:100ED0002DE9F047B0F800E0074642684FEA5E09A6
:100EE00001EB8E085FEADE0E2DED068B00F09E8092
:100EF0004FEA890401F1100302F1100C08F1100609
:100F0000103403EB0E1E0D19444456ED047A1033D1
:100F100053ED084A103516ED034A0CF1100C74EE2F
:100F2000A79A56ED012A14ED045A74EEE74A54EDDF
:100F3000035A103613ED062A103456ED066A15EDE5
:100F4000081A55ED071A32EE26AA15ED063A31EECB
:100F5000059A55ED053A71EEA58A14ED067A35EE3F
:100F6000415A54ED057A75EEE15A53ED070A33EE16
:100F7000078A13ED056A33EEA70A43ED089A70EE6F
:100F800084AA76EE229A03ED06AA30EEC44A43ED17
:100F900007AA37EE437A43ED059A77EEE37A05ED3B
:100FA000089A72EE666A45ED078A36EE626A05EDCA
:100FB000068A734505ED050A5CED073A1CED083A13
:100FC00064EE231A23EEE41A23EE652A65EE032A63
:100FD000A4EE031AE4EE831AA5EE232AE5EEA32A73
:100FE00006ED071A46ED081A04ED082A44ED072A13
:100FF0005CED055A1CED065A26EE253A65EEE63AFA
:1010000025EE674A67EE054AE6EE053AA6EE853A12
:10101000A7EE254AE7EEA54A06ED063A46ED053A63
:1010200004ED064A44ED054A7FF46FAF1FFA89F9D3
:1010300008460223494600F0C1FA49467A6840460C
:101040000223BDEC068BBDE8F04700F0B7BA00BF45
:101050002DE9F04F04880E46D1ED007A6408D1EDF9
:10106000015A2DED048B8FB0A30064080C9001EBA6
:101070000308406898ED007A00F1180502460B94C9
:101080000832029508EB030598ED014A03920246E7
:1010900095ED006A2F461032D5ED014A77EE866A4B
:1010A00008900192A21EEC1877EEC67A77EE262AF7
:1010B000520894ED005A35EEA46A94ED013A74EEAC
:1010C000273A72EE852A0A9475EEE45A079576EE71
:1010D000444A204612EE90CA76EEC76A73EEC33ACF
:1010E00046F808CB77EEC47A98ED012A35EEC74A68
:1010F000D4ED012A76EEC56A36EE026A049637EE22
:10110000257A464613EE90CA74EEC35A36EE226A2A
:1011100077EE837A74EE054A81ED016A37EE457AFF
:1011200046F808CB16EE90CA06962E46C8ED014A40
:1011300046F808CB17EE90CA00962646C5ED015A30
:1011400046F808CB059684ED017A099200F02481D7
:101150000C3B0246043DA8F1040E03440898A2F19A
:101160000C0601F1100C00F1200A00F13009DDF845
:1011700004B008F110041037103209980D9157EDA2
:10118000026A01385CED025A0BF1080B54ED027A49
:101190000CF1080C75EEA62A12ED023A17ED017A51
:1011A00075EEE65A5CED036A04F1080437EEA25AC4
:1011B00052ED010A36EE872A14ED036A36EEC77A3D
:1011C0000AF1100A75EE036A07F1080772EEE72AC2
:1011D000A6F1080637EE671A09F118094CED046A02
:1011E00077EE877A54ED036A76EE251A12ED015AEE
:1011F00031EE031A72EE266A02F1080277EEC37A24
:10120000A3F1080372EEC32A76EE856A32EE462A0F
:1012100035EEC66A4CED036A71EEE01A96ED047A7B
:1012200032EE602ADEED004A36EE206A95ED005A75
:1012300034EE873A93ED040AD6ED036A74EEC73AAA
:101240005EED015A75EE408A75EE030A93ED034A8E
:1012500035EEA67A55ED014A75EEE65A70EE806AD3
:1012600033EE453A37EE649A16EE901A73EEE40ABE
:1012700038EEA58A4EF8081974EE644A15ED015A45
:1012800070EE840AD3ED036A78EEE55A37EE057AFC
:1012900033EE405A39EE443A37EE267A74EEE34A9A
:1012A0008EED017A1BED037A5BED046A67EE618ACD
:1012B00021EE070A20EEA64A66EEC83AA1EEA60A7B
:1012C000E1EE268AF0EE446AE0EE873AE8EE076A3D
:1012D00004ED040A44ED038A13EE901A45F8081948
:1012E000C5ED016A1AED077A5AED086A27EE434AFE
:1012F00062EE071A67EE623A25EE077AA5EE664AB5
:10130000E2EE263AA3EE667AE2EEA61A47ED041A5A
:1013100047ED033A86ED044A86ED037A59ED0C6AEF
:1013200019ED0B7A24EEA65A67EE873A27EE463A75
:1013300026EEE54AE6EE263AA7EEA63AF0EE446A35
:10134000F0EE457AE4EE876AE5EE877A42ED043AFC
:1013500002ED033AC3ED046AC3ED037A7FF40FAFE5
:101360000998019CC3000D9900EB400204EB0010AA
:101370000190049818440490039818440390069828
:101380001844069000981844009005981844029B51
:1013900003EBC20305900293049E0846009B96ED62
:1013A000007AD3ED007A0423069D77EE275A059F35
:1013B000D5ED006A37EE677A97ED003A36EEA55A1A
:1013C0000099D6ED014A75EEE65A91ED014A35EEE7
:1013D000035AD7ED012A34EE846AD5ED017A74EE12
:1013E000C44ABDF82C4086ED005A77EE873A95ED59
:1013F000015A75EEC35A97ED012A34EEE64A36EEED
:10140000055A089A73EEE23A214634EE034A35EE65
:10141000025A36EE676A77EE677A86ED015A76EE03
:10142000A46A039E36EE626A77EEA27A96ED017A9E
:1014300076EEC36AD6ED004A24EE075A019E27EEE7
:10144000637AA3EEA45AA4EE247A85ED005A85EDC2
:10145000017A96ED017AD6ED004A26EE075A009DF4
:1014600027EE657A2E46A5EEA45AA6EE247A86EDDE
:10147000005A85ED017A029D95ED017AD5ED005A6D
:101480003D4626EE876A27EE677AA7EEA56AA6EEA6
:10149000A57A85ED006A87ED017A00F08FF80C9D42
:1014A000404621466A68042300F088F807982146E0
:1014B0006A68042300F082F821466A6804230A98C7
:1014C0000FB0BDEC048BBDE8F04F00F077B800BF63
:1014D000012A2DE9F041064617460C469846058834
:1014E00053D0B5F5807F4BD011D8202D48D05FD98F
:1014F000402D16D0802D03D121463046FFF7E8FC61
:10150000B8F1000F16D1012F1BD0BDE8F081B5F561
:10151000806FF1D048D9B5F5006F31D0B5F5805F57
:10152000EED1012372682946204600F047F8B8F151
:10153000000FE8D0B2682046B189FFF7A1FC012F67
:10154000E3D107EE905AB7EE007AF8EE677AC7EE6D
:10155000276A002DD9D004F10801002311ED027A89
:10156000013351ED017A08319D4227EE267A67EE6C
:10157000E67A01ED047A41ED037AEFD1BDE8F0811E
:1015800021463046FFF764FDBAE7A5B101F10C032F
:10159000002253ED027A01320833F1EE677A954268
:1015A00043ED047AF5D19CE7B5F5007FB9D0A7E704
:1015B000102DA1D0A4E7002BA7D0BBE72DE9F04F59
:1015C0009E4603468B468A46043304462DED108B17
:1015D00098469DB09FEDBF9A19901B921A934FEABF
:1015E000DB004FF000094FEACB034FEA800C11906B
:1015F00041010093A0EB0C02C30084446718D200A1
:101600001C1A02934FEACC0300EB4000BE1804936F
:10161000E30075180693C300AC18039303011198F7
:1016200005930301601802440193009B02EB010C37
:10163000D7ED006AD94490ED007A95ED003ACA459D
:101640009CED004A18ED015AD4ED007A96ED006A3F
:1016500075EE262AD2ED005A35EE665A76EE033A3A
:1016600077EE876A36EE436A77EEC77A35EE847A8C
:1016700075EEC45A72EEA64A72EEE62A76EE656AF6
:1016800033EE874AF0EE451AA6EEC95A34EE843A94
:1016900074EEC44A36EE256AB0EE672A08ED013AC8
:1016A000E6EE891AC7ED004AB0EE453ADCED015A84
:1016B00095ED015AA6EE092AD0ED010AE6EE497A27
:1016C000D6ED016A33EEC76A92ED014AD4ED014AC4
:1016D00076EEC53A34EE658A97ED010A76EE856AB4
:1016E00098ED007A34EEE05A34EE254A33EE881A4B
:1016F00077EE405A74EEA04AF0EE450A73EEC83A0F
:1017000037EE007AE1EE090AA1EE495AB0EE651A09
:10171000E3EEC95AA3EE891A76EE843A76EEC46AED
:1017200037EE244A37EE647A32EEA60A74EE234A84
:1017300072EEE66A34EE634A77EE462AC8ED004A56
:1017400036EE077A984487ED014A71EEA03A84EDAF
:10175000000A33EE054AC0ED006A71EEE04AC4EDBE
:10176000012A33EE455A80ED017A31EE426A35EEB8
:10177000E77AC6ED003A72EE016ACCED004A77EEE8
:10178000A57A85ED004A1F4482ED005A1C4486ED7F
:10179000016A1844CCED016A1E4485ED017A9C442F
:1017A000C2ED017A1D441A443FF642AF0093119BEB
:1017B000072B40F2D381049B4FEACE0402980831F4
:1017C00003F1080C1B9B129408301A19059E019F07
:1017D0000EEB8E091319039D083708361C46069B2D
:1017E000083508330F940293129BA3EB0E08129B4B
:1017F000E318CDF804800EEB4E081C460593199BA8
:101800005918DF199E199C440C91194609975F19C4
:101810000144129808960B912146029C01440797B7
:101820001C44019D0E180833274606940F9CED00BA
:101830000D930E94341818954FEAC8052318CDF867
:1018400028C004960394159502934FEA0813179342
:101850004FEAC9034FF0010916934FEA0E13149390
:101860004FEA4E13BE461393009B0E9CC846049845
:1018700094ED00DAD4ED019A059CD0ED00BAD4EDD8
:10188000018A049C039894ED010A039C90ED00BA30
:10189000D4ED017A0B98029C059D1090CDED007A55
:1018A0000298D4ED017AD2ED00DAD5ED00CAD0ED80
:1018B00000AA92ED01AADDF81CC0089F91ED00CAB4
:1018C000099E0A9D0C980D9A91ED018ACDED017A41
:1018D000109C01E0F304353FD5ED003AD84490ED7B
:1018E000007AD7ED007AC2459CED006ADEED006A11
:1018F000D2ED004A96ED005A94ED004A34EE872A64
:1019000074EEC74A92ED01FA35EE277A74EE232A77
:1019100035EE675A76EE267A72EE07EA36EE666A9A
:1019200032EEA73A34EE634A32EE472A7EEE836AFD
:1019300034EE067AB0EE45EAC2ED006A34EE464A6D
:10194000D5ED016AA7EE495A94ED016AA7EE09EABE
:10195000DEED013AF0EE640A9CED017A76EE66FA6D
:1019600090ED011A76EE266A37EE636A7FEE415AF1
:10197000E4EE090A72EEE72AD6ED017AE4EE494A6E
:1019800097ED014A37EE237A77EEC41A7FEEC63A16
:1019900077EE847A3FEE866AB0EE654AE3EEC95A86
:1019A0003FEE01FAA3EE894AF0EE613AE6EE491AFB
:1019B00036EE871AE6EE093A36EEC77A3EEEC33ABD
:1019C00074EE4EEAB0EE616A7FEE271A7FEE677A18
:1019D00072EE076A31EEC1FA32EE477A37EEE22A4A
:1019E00072EEA77A70EEA32A70EEE33A75EEC50A9E
:1019F00035EE255A68EE0F5A63EE48FA3EEE044A79
:101A0000ECEE035A34EE86EA74EEC64A26EEE96A34
:101A1000ECEE0FFA9DED00FA71EE811AB0EE653A28
:101A200069EE825AADEE026A9DED002A2FEE27FA8A
:101A3000C2ED011A27EE422A80ED003AEDEE265A59
:101A4000C0ED01FA6AEE2E6A1A44ABEE07FA1844AA
:101A500022EECA7A86ED016AABEE272ADDED017A25
:101A6000EDEEA26ADDED012A67EE847AC6ED005A3A
:101A700063EEE22A1E44ADEEAE7A87ED00FA6EEE1A
:101A800040EAEAEEA37A87ED012A60EE203AC4ED3F
:101A9000006AEAEE842A1F44EBEEA0EA28EE854AAB
:101AA00084ED017A64EEE80A1C44EBEE8E3ACEED4A
:101AB000007AACEEA44AECEE850ACEED012A9E44F3
:101AC000C5ED003AC5ED01EA1D448CED004ACCEDB0
:101AD000010A9C443FF600AF0E9A09F101091498DF
:101AE000024415980E92059A024416980592139A8C
:101AF0001144049A024417980492039A02441898D5
:101B00000392029A024402920D9A08320D920C9AA4
:101B100008320C920B9A08320B920A9A08320A92F7
:101B2000099A08320992089A08320892079A0832EC
:101B30000792069A083206920F9C11982246484551
:101B400006D02046129CDDF818E020440F908CE669
:101B50008346BDF848E0DDE9194840E51DB0BDEC1D
:101B6000108BBDE8F08F00BF2DE9F0411746064607
:101B70000C46002B58D11A460123FFF7A9FCD4EDDF
:101B8000017AB0EE006AD4ED005A77EEA77A328877
:101B9000F6EE006A7569013A07F11006B0EE677A51
:101BA0001035D5EE867A04EBC200B0EE664A04F139
:101BB0001003A5EE867A083867EEA67A27EE267A15
:101BC000C7ED017A87ED007A53ED015A013AD0ED65
:101BD000036A0833D0ED027A002A53ED044A35EE49
:101BE000E67A15ED016A76EEA56A37EEE45A55ED10
:101BF000025A77EEA47AA0F1080005F1080506F173
:101C00000806A6EE057AE5EE857AA5EEE67AE6EE1A
:101C1000267A27EE047A67EE847A06ED037A46ED9B
:101C2000047AD1DCBDE8F081D1ED007AB6EE004A4D
:101C3000D1ED016AB0F800C037EEA67A406977EEC0
:101C4000E67A0CF1FF3C27EE047ABCF1000F67EE58
:101C5000847A4FEACC0182ED007AC2ED017A37DD59
:101C6000083904F1100510300C4402F1100155ED53
:101C7000015ABCF1010CD4ED036A05F10805D4ED5D
:101C8000027A00F1080055ED044A35EEE67A10EDCF
:101C9000046A76EEA56A34EEE75A50ED035AB1EEC7
:101CA000466AA4F1080477EEA47A01F10801A5EED2
:101CB000857AE6EE057AA6EE267AE5EEE67A27EE56
:101CC000047A67EE847A01ED037A41ED047ACED18D
:101CD0001A46394630460123BDE8F041FFF7F8BB0C
:101CE00010B4069CA468A40703D15DF8044B00F06F
:101CF0004DB86FF002005DF8044B7047C2688B6806
:101D00005200486803FB02F300FB03F040007047F9
:101D1000D86810F0030F34D1F0B50C698BB064BBF8
:101D20004E6956BB8C68012C27D1CC68012C24D17C
:101D30001C46D3F808C00D461746169BD4E900127E
:101D40006C6A02FB0CF2049001FB02F1286A089411
:101D500002910790149A1299D5E900400594159CB8
:101D60000690E4681098D7E900750394CDE90075F2
:101D700000F088FD30460BB0F0BD6FF002000BB0F4
:101D8000F0BD6FF002007047002070472DE9F04F62
:101D9000B5B093460068439E1A88D6F80CC0DF6839
:101DA0001FFA8CF91B902C92CDF8A4903F9DD3E99B
:101DB0000139D5E901540893D6E901300E69189626
:101DC0004E6926968E681996CE682796D1E90062EC
:101DD0001E920A6A496A1F922091DBF800102C9A21
:101DE0002191DBF804102291002A00F060811FFA93
:101DF00084FE00211FFA85F81FFA87FA2E91CDF88C
:101E000068E071461EFB08FE1FFA8CF74246BDF8DB
:101E100020C01EFB0AFE84B201FB02F299B2CDF88B
:101E200044C01FFA8EFC02FB0AF31FFA89F52391C6
:101E3000D34604FB01F1C3F38F0314940CF00304A5
:101E400052001B980E95339434B205FB0AF54FEA05
:101E50004A0A2D93013B12940AFB0204119A9BB289
:101E6000CDF8A88002FB05F201333297319207FBCF
:101E700001F2CDF8A0C030929A0000EBC3030F9599
:101E800016942B935346DA462F929B46239B002BA6
:101E900000F0FE80449B1D931B9B089300231C9322
:101EA000149B002B5FD00022BDF89C301C9913922C
:101EB00001FB03F3BDF898209B1A2A9A9A181593F0
:101EC0000D920E9A02FB03F3179315990D9A914206
:101ED0003EDA1A988946BDF8643000FB0BF213997C
:101EE000109201FB03F3BDF860209A1A179B871824
:101EF000D3180A923E9A0AFB032309930E9BBB4216
:101F0000A8BF3B4698460A9BBB4218DA119A4A453D
:101F10008CBF0022012211460E9A9A4200F3CB8018
:101F20001C46089D013428465A4600213AF040FCE0
:101F3000A7425D44F6DC089B109A13440893099B62
:101F400009F101090F9A134409930D9B9945DAD1C0
:101F5000169B089A934200F0D680139B149A013383
:101F60009A421393B1DC1C9B239A013393421C9336
:101F700096DB1B9B089A934200F08A80329B002BD1
:101F800000F08680219ADDF808C1A2F1040E229AA1
:101F9000409DA2F104081D9ACDE908AB02EB0309AC
:101FA0009246DDF8CCB0429B002B00F0CD802D9BFB
:101FB000DCF80010002B00F0CC802F9B1B9CEF184E
:101FC00055F8043B20682FFA83F24FEA33232FFAA7
:101FD00083F3C3EA2246C2EA034323FB001163688A
:101FE000083426FB0311BD42EAD12B9BBBF1000F45
:101FF00017D095F90020BBF1010F188810FB0211D2
:1020000000F0A98095F90120BBF1020F588810FB60
:10201000021100F0A2809A88033515F9013C12FBE9
:10202000031158F8040F4FF08043002420EAE072B7
:102030002493259400285EF8043F01FA02F2DDE9BA
:102040002467C3FB02674FEAD67242EA47030DDCFE
:10205000404201228240013A03EA020103414FEA71
:10206000620248BF01329142C8BF01331E9A0CF18F
:10207000040C13441F9A9342B8BF1346209A93420C
:10208000A8BF13460AF8013BCA458CD1DDE908AB6D
:102090003E9A31992E9B0A44309901333E92449ADC
:1020A0002E930A4444922C9A9A427FF4EFAE002079
:1020B00035B0BDE8F08FCDE90B97DDE908561C4639
:1020C0000F46DDF848900BE04B467FB901342946B6
:1020D0003046524601F024FE44455D4456440CDA35
:1020E000002C5A464FF000012846EDDA01343AF050
:1020F0005FFB5D4456444445F2DBDDE90B97BC428F
:10210000FFF610AF17E71D9B139DBDF98000289ABD
:1021100001351E99BDF97C400693219E429B049295
:1021200005930191229B0390299A1B990096409850
:102130000294139500F0B8F8149B1D90AB421B9BC2
:1021400008933FF7C2AE0EE719462D9B002B7FF494
:1021500034AF1B9B4AE7013563E7023561E700BFF7
:10216000C2688B689200486803FB02F300FB03F02F
:10217000704700BF2DE9F04F83B00F690C468646CB
:102180000C9D90461E460095DDE90DC5DDE90FBAB0
:102190000195DDE911590FB94F69D7B16B68012B72
:1021A00002D17368012B2AD02146019C3346424656
:1021B0007046CDF848901195CDF840A0CDF83CB0D0
:1021C000CDE90DC4009C0C9403B0BDE8F04FFFF7BF
:1021D000DDBDDF68BF07E1D18F68012FDED1CF6899
:1021E000012FDBD1DCF80870012FD7D1DCF80470A7
:1021F000012FD3D103B0BDE8F04FFFF789BDDCF864
:102200000430012BD0D1AB689B07CDD13368012BB3
:10221000CAD12146019C334642467046CDF84890CB
:102220001195CDF840A0CDF83CB0CDE90DC4009C8F
:102230000C9403B0BDE8F04FFFF752BD10B40C464C
:10224000016909B9416959B15968012902D1616827
:10225000012919D0204611465DF8044BFFF780BFD5
:10226000E1688907F0D181680129EDD1C1680129B0
:10227000EAD191680129E7D151680129E4D12046CA
:102280005DF8044BFFF780BD51680129E2D19B68DE
:102290009B07DFD12368012BDCD1204611465DF876
:1022A000044BFFF72BBD00BF2DE9F04FA1B00F4647
:1022B000029030981691510800EB0204BDF9B0006D
:1022C0001E920790BDF9B4001C930890BDF8B800A9
:1022D0001D94159000F0C08185082F9A013907EBF5
:1022E00040069C4600F0030002F1100389B26A1E0A
:1022F00014901F9103EBC1012F9892B2634618917D
:102300000830A11C013208330B900A9130982A99A9
:102310000493D30092000230083117951A92F218F4
:10232000FB1819960990059103921B93159B02982F
:10233000C1180B9B53F8086C53F8044C179B06917B
:10234000002B00F05882DDF864C0A146DDF858E0AB
:1023500037468A460190019BDEF8005053F8042B63
:10236000DCF8000001934FEA322B5AF8043B2FFAB5
:102370008BFB2FFA82F24FEA3328CBEA22412FFA65
:1023800083F3C2EA0B422FFA88F8C8EA234BC3EA68
:10239000084822FB056622FB007728FB054428FB42
:1023A0000098DEF804300CF1080C5CF8049C0EF187
:1023B000080E21FB036621FB09772BFB03442BFB53
:1023C0000989039B9C45C6D1029A1A9B1146069A1D
:1023D0001A441944039B06921B9A029114990029EE
:1023E00040D00298069990F900C0B2F900508E468C
:1023F000B3F9000091F9001015FB0C6610FB0C7787
:1024000015FB014410FB01991499012900F0EF819B
:102410000299B2F9025091F901C00699B3F902008C
:1024200015FB0C6691F9011010FB0C7715FB0144AC
:1024300010FB01991499022900F0E281029D06998E
:10244000B3F9040091F90210B2F9042095F90230B1
:1024500010FB019912FB0144E91C12FB036610FBFF
:1024600003770291049B002053F8081C4FF080432F
:102470000D900C9321EAE172059B814206FA02F667
:1024800053F8083CDDE90CABC3FB06AB55464FEAFD
:10249000D57242EA4B030DDC494201228A40013ADF
:1024A00003EA02000B414FEA620248BF0132904248
:1024B000C8BF01332B9A13444FF080420E92079A03
:1024C0009342B8BF134600220F92089A9342A8BFC6
:1024D0001346099A02F8023C049B53F8081C059B1A
:1024E000002953F8082C21EAE173DDE90E5607FABA
:1024F00003F3C2FB03564FEAD57242EA46030DDCF2
:10250000494201228A40013A03EA02000B414FEAA4
:10251000620248BF01329042C8BF01332B9A134474
:102520004FF080421092079A9342B8BF13460022A0
:102530001192089A9342A8BF13460A9A02F8023CE5
:10254000049B53F8041C059B21EAE172002953F80F
:10255000043C04FA02F4DDE91056C3FB04564FEACA
:10256000D57242EA46030DDC494201228A40013A13
:1025700003EA02000B414FEA620248BF0132904277
:10258000C8BF01332B9A13444FF080421292079A2E
:102590009342B8BF134600221392089A9342A8BFF1
:1025A0001346099A02F8013C049B53F8044C059B1E
:1025B00024EAE472002C53F8043C09FA02F2DDE943
:1025C0001201C3FB02014FEAD07242EA41030DDC63
:1025D00064420122A240013A03EA020123414FEA88
:1025E000620248BF01329142C8BF01330299159877
:1025F0002B9A014413440B9A029109990832023133
:102600000B92099107998B42B8BF0B460599083187
:10261000059104990831049108998B42A8BF0B4693
:102620000A9901F8013C8B1C0A93189B93427FF492
:102630007DAE1F991C9A0131CB0049001A441C92AF
:102640002A9A1A442A922F9A1A44309B0B442F92AA
:1026500030931D9B0B441D931E9BDA0740F1C180F4
:10266000159A2F9B169C5FEA9208186804EB420E9D
:1026700000F0CA8008F1FF3875460146029F1FFA34
:1026800088F808F101084FEAC80904EB090C57F86B
:10269000042BD4F800A02FFA82F34FEA32222FFA4B
:1026A00082F2C2EA2346C3EA024323FB0A0A2A68EB
:1026B00023FB02136068083555F8041C083426FB18
:1026C00000A026FB01316445E1D1029BCE44169463
:1026D00003EB88030293159B13F0030320D0029EA3
:1026E000012B169F96F900203D88BEF8004015FB8F
:1026F000020014FB021113D096F90120022B7D88F1
:10270000BEF8024015FB020014FB021108D096F936
:102710000230BC88BEF8042014FB030012FB031136
:102720001C9B4FF080422A9C1D680023246825EAE8
:10273000E576002D00FA06F0C4FB00231C464FEAA4
:10274000D27242EA44030DDC6D420122AA40013AF2
:1027500003EA02002B414FEA620248BF0132904275
:10276000C8BF01332B9A089DD418309B4FF080428C
:10277000581C079B9C42B8BF1C460023AC42A8BF14
:102780002C46309D2C701C9C2A9D24682D6824EAC0
:10279000E476002C01FA06F1C5FB01234FEAD27260
:1027A00042EA43030DDC64420122A240013A03EAFB
:1027B000020123414FEA620248BF01329142C8BF81
:1027C00001332B9A30901344079A9A42B8BF1A46A5
:1027D0001346089A9A42A8BF1A4613461D9A1370C8
:1027E0001E9B309A1344184621B0BDE8F08F029B1F
:1027F0000133029336E6199BA146169A3746EDE55A
:10280000029B023302932DE60146134664E700BFA4
:102810002DE9F04F1D688BB0DDE9146BDDE919A8D7
:1028200055B30C469146DBF80000DAF80C10D4F8EA
:1028300010C04346E768069105903046CDF820C0A9
:10284000D9F804E00797D9F800C0CDF810E0A768E0
:10285000CDF80CC0D4F804C0029727681699189ACE
:10286000CDE9007C00F082FEDBF80000DAF80C1005
:10287000013D06448844DAD100200BB0BDE8F08F5A
:10288000002070472DE9F04FB3B027923F9A269071
:10289000012A30913193DDF8008140F3AD833E9AF7
:1028A0001D46A8F110030E4650103F9A23F00F0367
:1028B000A8F10F04023A4100299052083E981D9455
:1028C000013200F001002095259203F1100200234F
:1028D000289015923C9A3F981C923D9A00FB01F07B
:1028E000219308F1FF331B923C9A2F9308F10403C4
:1028F00004322E9008934FEA48001A9208F101031F
:102900003D9A249004321796189319923F9A5200D8
:102910001E92409B002B40F31F862F9A0026179B88
:102920003746D418013B224613F9010F12F9011F53
:102930009C4207440E44F7D1419B07FB03F31193DC
:10294000419B06FB03F31693279B5BB1219903EB95
:10295000C10253F83130119952681944169B13443F
:1029600011911693299A002A00F0F1853F9B0E924F
:102970000133209A179913441598DDF898C0014443
:10298000DDF80091CDE90F23409B1F91083303939D
:10299000409B043B01931D9B002B40F3D083159B70
:1029A000119D63442C460293DDE916369A46D6F80B
:1029B0000080DCF800702FFA88F12FFA87F056F8C3
:1029C00009202FFA98F82FFA97F720FB01552FFAD4
:1029D00082FE27FB08552FFA92F220FB0E3327FBCD
:1029E00002335CF809002FFA80F72FFA90F027FBEA
:1029F000014127FB0EAA20FB0811D6F8048020FB1A
:102A000002AA0898DCF8047056F800E02FFA87F262
:102A10002FFA88FB2FFA98F82FFA97F722FB0B551D
:102A20002FFA8EF427FB08552FFA9EFE22FB043363
:102A300027FB0E375CF800002FFA80F32FFA90F096
:102A400023FB0B1123FB04AA20FB0818B46820FB0E
:102A50000EAA039ADCF80830B0582FFA83F12FFA47
:102A600084FE2FFA94F42FFA93F321FB0E552FFADC
:102A700080FB23FB04552FFA90F021FB0B7723FBFF
:102A800000775CF802202FFA82F32FFA92F223FBF0
:102A90000E8823FB0BAA22FB0484F168103622FB6C
:102AA00000A0019A0CF1100C5CF8043C56F802A04E
:102AB0002FFA83F82FFA81FE2FFA91F12FFA93F370
:102AC00028FB0E552FFA8AFB23FB01552FFA9AF2A9
:102AD00028FB0B7723FB0273019F5CF807A02FFAFA
:102AE0008AF72FFA9AFA27FB0E4427FB0B002AFBE2
:102AF00001442AFB020A029A94457FF458AF1F9AB8
:102B0000DDF854B0D9450CEB090140F31683189851
:102B10000BF1010192F900709CF900E00CEB000848
:102B200012F9096089451CF909001EFB07551EFBB7
:102B3000063317FB004416FB00AA40F3FC8202EBAD
:102B4000090118989CF901E00CF1020791F9018044
:102B50000BF102011CF9000092F9016089451EFB8E
:102B6000083318FB00AA1EFB065507EB090E16FBDF
:102B7000004402F1020040F3EA820CF103080BF179
:102B8000030110F909E008EB090617F90900894566
:102B90009CF9027002961EFB00AA92F9026017FBD4
:102BA0000E3316FB004402F1030017FB065540F3F9
:102BB00093820CF104060BF1040110F909E09CF971
:102BC0000370894518F9090006EB0908029617FBFE
:102BD0000E3392F903601EFB00AA16FB004402F1BB
:102BE000040017FB065540F3A682029E0CF105086F
:102BF00010F909E00BF1050116F9090008EB0906C7
:102C00009CF90470894502961EFB00AA92F90460A3
:102C100017FB0E3316FB004402F1050017FB0655A7
:102C200040F35A820CF106060BF1060110F909E097
:102C30009CF90570894518F9090006EB0908029608
:102C400017FB0E3392F905601EFB00AA16FB004429
:102C500002F1060017FB065540F36D82029E0CF14F
:102C6000070E10F909700BF1070116F909000EEBB8
:102C700009069CF906808945029617FB00AA92F97D
:102C8000066018FB073316FB004402F1070018FB2F
:102C9000065540F321820CF108080BF1080110F9E8
:102CA000097008EB09061EF9090089459CF907E03F
:102CB000029617FB00AA92F907601EFB073316FB6A
:102CC000004402F108001EFB065540F305820CF19A
:102CD000090E0BF1090110F909700EEB090618F93C
:102CE000090089459CF90880029617FB00AA92F911
:102CF000086018FB073316FB004402F1090018FBBB
:102D0000065540F3E9810CF10A080BF10A0110F9AC
:102D1000097008EB09061EF9090089459CF909E0CC
:102D2000029617FB00AA92F909601EFB073316FBF7
:102D3000004402F10A001EFB065540F3CD810CF160
:102D40000B0E0BF10B0110F909700EEB090618F9C7
:102D5000090089459CF90A80029617FB00AA92F99E
:102D60000A6018FB073316FB004402F10B0018FB46
:102D7000065540F3B1810CF10C080BF10C0110F970
:102D8000097008EB09061EF9090089459CF90BE05A
:102D9000029617FB00AA92F90B601EFB073316FB85
:102DA000004402F10C001EFB065540F395810CF126
:102DB0000D060BF10D0110F909E09CF90C70894525
:102DC00018F9090006EB0908029617FB0E3392F971
:102DD0000C601EFB00AA16FB004402F10D0017FB5D
:102DE000065540F3A881029E0BF10E0B10F9090065
:102DF0000CF10E0E16F90910D9459CF90D7002F16F
:102E00000E0892F90D6010FB01AA17FB003316FBA8
:102E100001440EEB090117FB065540F38E8192F930
:102E20000E100CF10F009CF90E6018F9092000EB50
:102E3000090C1EF9097016FB015516FB023311FB34
:102E4000074412FB07AA199A4FF08041002052F85C
:102E5000042C049122EAE27B1A990590002A51F889
:102E6000041C05FA0BF5DDE904671291C1FB056747
:102E700035464FEAD57040EA4701029140F341815F
:102E8000DDE904129046099214921B9A4FF080419A
:102E900000255268069122EAE2701C990795002AE3
:102EA000496803FA00F3DDE906561391C1FB0356A6
:102EB0004FEAD57343EA460340F31181DDE9065634
:102EC000B646314632464FF0804504FA0BF40A9577
:102ED00000250B95129DDDE90A67C5FB0467F60F17
:102EE000149C46EA470656FA04FB06EA080802D58F
:102EF000099C01340994099C0AFA00F0139DA0452D
:102F00004FF080440C944FF00004C8BF0BF1010B4C
:102F10000D94DDE90C67C5FB0067F00F40EA470040
:102F200050FA02F201EA0001029848BF0EF1010EC8
:102F300071454299C8BF013201444298034400EBF5
:102F40000B04024443988142B8BF01468342B8BF94
:102F500003468442B8BF04468242B8BF0246449842
:102F60008142A8BF01468342A8BF03468442A8BF4E
:102F700004468242A8BF02460F984370054601707E
:102F80001E982B180F93109B03F8014C1A700344E2
:102F900010930E9B013B0E937FF4FDAC209B2E9A69
:102FA00013440193289B002B40F0D380179A249957
:102FB000219B0A4401331792209A219302322092D6
:102FC0001C9A08321C921B9A08321B921A9A0832D9
:102FD0001A92199A08321992259A9A427FF499AC5A
:102FE0000846259B3099DDF8008103FB00123092E2
:102FF000319A02EB430331933F9BDB0768D53E9B3D
:10300000002B65DD3F9B6FF0404000214FF0010E2B
:1030100018443C9B269A8000DDF8C4C0419F1D18CF
:103020003D9B1C18279B184402901846002800F06E
:103030009882029B1E68B8F1000F0DDD309B02EBF9
:10304000080B03F1FF3912F9013B19F901AF3B44B9
:103050005A450AFB0366F6D14FF08043D4F800903E
:10306000229329EAE97A2B68B9F1000F06FA0AF6E9
:1030700001934FF000032393019BDDE922ABC3FBD7
:1030800006AB4FEADA7343EA4B030FDCC9F10009E0
:103090000EFA09F6013E03EA060A53FA09F34FEA6B
:1030A000660648BF0136B245C8BF0133429E0131B2
:1030B0003344439EB342B8BF3346449EB342A8BF95
:1030C00033468CF800303F9B9C443E9B8B42ADD1F5
:1030D000002033B0BDE8F08FDDF808C0B3E65242FF
:1030E00001219140013903EA01054FEA610E1341C4
:1030F0004CBF0EF101067646B5427FF7E4AE0133D0
:10310000E1E65142012000FA01F80298149108F119
:10311000FF3850FA01F14FEA6805029100EA08020F
:103120002946099548BF01318A427FF7AEAE029A1F
:1031300001320292A9E6C44685E68C4683E6DDE9C3
:103140001632119D4FF0000B9A462C46DAE4F446F5
:1031500079E61D9B002B179B40F305821599E646E7
:10316000119803EB01094099169A03EB01080C46EC
:103170001D681E59DEF800102FFA85FB2FFA86FA1B
:103180002FFA81F72FFA95F52FFA91F12FFA96F68B
:1031900027FB0B0021FB050027FB0A2221FB062150
:1031A0005D68D8F80460DEF804202FFA85FB2FFA5A
:1031B00086F72FFA82FA2FFA95F52FFA92F22FFA64
:1031C00096F62AFB0B0022FB05052AFB071122FBC2
:1031D0000611D8F808609F68DEF808202FFA86F0FC
:1031E0002FFA87FA2FFA82F82FFA97F72FFA92F22E
:1031F0002FFA96F628FB0A5522FB075728FB0011E9
:1032000022FB0611D8681033DEF80C500EF1100EB8
:1032100003EB04082FFA80FB58F8046C2FFA85F2B0
:103220002FFA86FA2FFA90F02FFA95F52FFA96F6E4
:1032300022FB0B7725FB007022FB0A1225FB0622DE
:103240004B4595D1159D19461190AC441692409B63
:10325000AB4240F3168191F900000C469CF9002026
:103260006B1C119E409912FB0067169861561197CE
:1032700012FB010240999942169240F302819CF997
:103280000120611894F90100AB1C91F90110264648
:1032900012FB0077169812FB010240991197994290
:1032A0001046169204F1020240F3EB8012F901E09D
:1032B000EB1C9CF90220033496F9021012FB0E005D
:1032C00012FB0172409916909942119240F3D980F5
:1032D000645607469CF903202B1D96F90300311D07
:1032E00012FB0477119C12FB0042409C16979C42F3
:1032F000119240F3C68008576B1D9CF90420741D81
:1033000096F9041012FB0077119812FB0102409904
:1033100016979942119240F3B4806056AB1D9CF908
:103320000520B41D96F9051012FB0077119812FBC9
:103330000102409916979942119240F3A280645677
:10334000EB1D9CF90620F11D96F9060012FB04778F
:10335000119C12FB0042409816979842119240F33C
:1033600090800C5605F108039CF9072006F108012E
:1033700096F9070012FB0477119C12FB0042409C57
:1033800016979C4211927CDD085705F109039CF9C0
:10339000082006F1090496F9081012FB007711982D
:1033A00012FB0102409916979942119269DD60560D
:1033B00005F10A039CF9092006F10A0496F909109F
:1033C00012FB0077119812FB01024099169799425F
:1033D000119256DD605605F10B039CF90A2006F1A7
:1033E0000B0496F90A1012FB0077119812FB0102E8
:1033F000409916979942119243DD605605F10C03EE
:103400009CF90B2006F10C0496F90B1012FB0077C7
:10341000119812FB0102409916979942119230DDE2
:10342000605605F10D039CF90C2006F10D0496F988
:103430000C1012FB0077119812FB010240991697AD
:10344000994211921DDD605605F10E039CF90D2085
:1034500006F10E0496F90D1012FB0077119812FB7D
:103460000100409A16979A4211900ADD9CF90E309D
:1034700096F90E10A25613FB010113FB0273119172
:103480001693199B0021119F53F8040C4FF08043B1
:103490002B912A9320EAE0721A9B002807FA02F780
:1034A00053F8043CDDE92A12C3FB071213464FEA26
:1034B000D17141EA43010DDC404201238340013BCD
:1034C00001EA030201414FEA630348BF01339A4214
:1034D000C8BF01311B9B002458684FF080432D94D6
:1034E00020EAE072169C2C93002804FA02F41C9B3C
:1034F00022465B68DDE92C45C3FB024523464FEAC3
:10350000D37242EA45030DDC404201228240013A77
:1035100003EA020403414FEA620248BF01329442C7
:10352000C8BF0133429A11441344439A9142B8BF31
:1035300011469342B8BF1346449A9142A8BF114620
:103540009342A8BF1346019A117053702EE5209B39
:10355000DDF898C0019325E5002316931193FFF73A
:10356000F3B9064667E51946002570E62DE9F04FE8
:1035700097B098460692DDF884E01393209B0FFAEB
:103580008EF60B900FFA83FC1291CCEA0C4CDDE91D
:103590002592C6EA0646012A40F34682249A8A46C4
:1035A0000121249F5442269A27EAE777CDF804A008
:1035B000951EA9F11002A1400E9425F001034FEAD7
:1035C000490422F00F02149543440C9410324C1E0F
:1035D000043345460F9464100D9303460235089753
:1035E0001344109211940A93631C0795159309963E
:1035F000069B002B00F080835968B9F10F0F53F838
:10360000082B069340F37E83CDF884E0019FDDF81C
:103610002C80099EDDF828E0D7F800B0D8F80040EB
:103620004FEA3B2357F809504FEA342026FA83F338
:1036300026FA8BFB2CFA84F42CFA80F024FB0B2264
:1036400026FA85FA20FB032B4FEA35257B6826FAFC
:1036500085F224FB0A1120FB0215D8F8040007EBC1
:10366000090A2CFA80F14FEA3322DAF804404FEAD3
:10367000302026FA83F32CFA80F026FA82F221FB1E
:1036800003B326FA84FB20FB02324FEA3424BB68E2
:1036900026FA84F421FB0B5120FB0414D8F808B05F
:1036A0004FEA3321DAF808A04FEA3B2526FA81F1E8
:1036B0002CFA8BFB2CFA85F526FA83F32BFB0322DD
:1036C00026FA8AF025FB0122FB684FEA3A2A1037D6
:1036D00026FA8AFA2BFB004B25FB0AB5D8F80C001A
:1036E00007EB09014FEA332B08F110084FEA3024A9
:1036F00051F8041C2CFA84F42CFA80F026FA8BFB87
:1037000026FA83F320FB032226FA81FA24FB0B22FC
:103710004FEA312126FA81F120FB0A5524FB0151A1
:10372000F0457FF479AF019B1098DDF884E0034405
:103730000A9C0996484580F2178194F90050471C6D
:1037400093F900A013F90980B945209EF244F04492
:10375000354405FB0A2205FB081140F3058103EB04
:10376000090794F9015093F901A097F90180871C8A
:103770003544F244F044B94505FB0A2205FB081123
:1037800003F1020540F3F08015F909A0C71C94F974
:10379000025093F90280F2443544B945F04405FBE8
:1037A0000A1105FB082203F1030540F3DD8015F93A
:1037B00009A0071D94F9035093F90380F24435449E
:1037C000B945F04405FB0A1105FB082203F1040585
:1037D00040F3CA8015F909A0471D94F9045093F9E4
:1037E0000480F2443544B945F04405FB0A1105FB59
:1037F000082203F1050540F3B78015F909A0871DDC
:1038000094F9055093F90580F2443544B945F044E4
:1038100005FB0A1105FB082203F1060540F3A4800D
:1038200015F909A0C71D94F9065093F90680F244D2
:103830003544B945F04405FB0A1105FB082203F1A4
:10384000070540F3918015F909A000F1080794F9E4
:10385000075093F90780F2443544B945F04405FB1D
:103860000A1105FB082203F108057DDD15F909A001
:1038700000F1090794F9085093F90880F24435449F
:10388000B945F04405FB0A1105FB082203F10905BF
:103890006ADD15F909A000F10A0794F9095093F9B6
:1038A0000980F2443544B945F04405FB0A1105FB93
:1038B000082203F10A0557DD15F909A000F10B07ED
:1038C00094F90A5093F90A80F2443544B945F0441A
:1038D00005FB0A1105FB082203F10B0544DD15F970
:1038E00009A000F10C0794F90B5093F90B80F244F6
:1038F0003544B945F04405FB0A1105FB082203F1E4
:103900000C0531DD15F909A000F10D0794F90C50F3
:1039100093F90C80F2443544B945F04405FB0A1193
:1039200005FB082203F10D051EDD15F909800E3097
:1039300094F90D5003F10E0A93F90D70F0443544DB
:103940008145774405FB081105FB07220CDD94F93E
:103950000E0093F90E301AF9094030447344744450
:1039600000FB032200FB04114FF080430293089BED
:103970009A4000230393239BDDE90245C3FB0245E4
:103980002B46E50F45EA4305249B002B40F3A58118
:10399000DDE90234A3462046A0464FF080430C9A4E
:1039A0000493089B994000230593239BDDE904675A
:1039B000C3FB0167F10F229B41EA47011D4451FA05
:1039C00008F800EA010748BF0BF1010B5F45C8BFCB
:1039D00008F101089844019B13440D9A0193279B19
:1039E0009D42B8BF1D469845B8BF9846289B9D424A
:1039F000A8BF1D469845A8BF9846079B03F8025CE0
:103A0000023303F8038C9A4207937FF4F1AD149BC1
:103A100012995B080C9A099E013303FB0212129261
:103A2000139A02EB43031393269BDB0740F151816A
:103A3000069B002B00F06A811A68B9F10F0F40F362
:103A40006781A9F110030B9D1B0901331901019333
:103A5000129B8B465F18186829684FEA302426FAB3
:103A600080F026FA84F84FEA31242CFA81F12CFAFE
:103A700084F421FB002224FB0824D3F804806A6824
:103A80004FEA382026FA88F826FA80FA4FEA3220E0
:103A90002CFA82F22CFA80F122FB084221FB0A2048
:103AA0009C68A9684FEA34284FEA312226FA84F448
:103AB00026FA88F82CFA81F12CFA82F221FB040113
:103AC00022FB0811D868103555F8042C10334FEA42
:103AD000302426FA80F826FA84F44FEA32202CFAB1
:103AE00082F22CFA80F022FB081220FB0422BB4257
:103AF000B1D10B991293019B59441B010B9199452C
:103B000040F3BD800B9D591C129E95F9000089451C
:103B100096F90040209F7444384404FB002240F38F
:103B2000AE8095F90100991C96F901403844894509
:103B3000744404FB002240F3A28095F90200D91CD2
:103B400096F9024038448945744404FB002240F34E
:103B5000968095F90300191D96F90340384489456C
:103B6000744404FB002240F38A8095F90400591D37
:103B700096F9044038448945744404FB00227EDDF4
:103B800095F90500991D96F9054038448945744416
:103B900004FB002273DD95F90600D91D96F9064055
:103BA00038448945744404FB002268DD95F9070018
:103BB00003F1080196F9074038448945744404FB31
:103BC00000225CDD95F9080003F1090196F908402F
:103BD00038448945744404FB002250DD95F90900FE
:103BE00003F10A0196F9094038448945744404FBFD
:103BF000002244DD95F90A0003F10B0196F90A4011
:103C000038448945744404FB002238DD95F90B00E3
:103C100003F10C0196F90B4038448945744404FBC8
:103C200000222CDD95F90C1003F10D0496F90C001F
:103C30003944A145704400FB012220DD95F90D10A7
:103C400003F10E0496F90D003944A145704400FBC0
:103C5000012214DD95F90E100F3396F90E002C4653
:103C6000394499457044354600FB012207DD95F93A
:103C70000F3094F90F109E44CB1903FB0E22249BA6
:103C80004FF08040002123EAE3739A40239BC3FB5B
:103C90000201C30F43EA4102249B002B0DDC5B426F
:103CA00001219940013902EA01001A414FEA6101FC
:103CB00048BF01318842C8BF0132229B1344279A72
:103CC0009342B8BF1346289A9342A8BF1346139A4B
:103CD0001370002017B0BDE8F08F0E9A0F9B2B4099
:103CE00015414CBF159A119A934213DD0135DDF849
:103CF00044B0DDE90E8050E6B9F10F0F1A461946BF
:103D00003FF782AC019B00200B9C13E51A4694E61A
:103D10000023F4E6DDF844B0DDE90E803DE600BFA7
:103D20002DE9F043C3EA034C4FEA9208B8F1000FC3
:103D30001AD047460E4686465EF8044B013F2CFAE1
:103D400084F506F108064FEA34242CFA84F4C4EA18
:103D50002549C5EA044446F8049C46F8084CEBD1D2
:103D600001EBC80100EB880012F0030210D090F9BB
:103D700000409BB2012A1C440C8009D090F90140FC
:103D8000022A1C444C8003D090F9022013448B80FB
:103D9000BDE8F0832DE9F04F9FB0CC68D2F80CA0BD
:103DA0006742109300681197DDE928567368B6687A
:103DB00016930996D2E901734A68159318920A6816
:103DC0000B690A928A6849690C930D916968AD681C
:103DD000199116991A9200290B952A9B40F3BE80DF
:103DE0001146002EC2F100021B9240F3B7805A1E0A
:103DF000A0F1040B159B14920AFB06F212941C927C
:103E00003A1913920BEB8A020E920AFB03F20B444F
:103E1000019200221D9317921A9A119B1B990592E9
:103E2000002B1D9A199806920391149A13990492E3
:103E3000129AC8BF0022814213440792A8BF0146CC
:103E4000159A894602FB03F300210F930891039B07
:103E50000B9A002B059BD8BF9E46069BC8BF4FF010
:103E6000000E9342A8BF13469846079B4B4580F22D
:103E700091809C460F9A039B00259F18A8EB0E0388
:103E800077440293109B0AFB0737013FC64517DAB8
:103E9000029B39465E19002D6BD0BAF1000F61DD2F
:103EA0005A4601EB0A0011F9013F52F8044F84FA17
:103EB00083F381421360F6D101350146B542EAD160
:103EC0000CF1010C019BE1451F44DFD16C10BAF1EC
:103ED000000F19DD594604980E9FDDE90C2651F8B4
:103EE00004CFBCF1000F04EB0C03D8BFACEB040310
:103EF00093FBF5F39342B8BF1346B342A8BF3346D2
:103F00008F4200F8013FEAD103990A9A08460499C2
:103F1000089B514410440133049105990893891A70
:103F20000390059106998A1A0692099A9A428ED1AF
:103F30001199189A08461299179B891A104401334F
:103F40001291139917938A1A1C9911901392149A2B
:103F50000A441492169A9A427FF45EAF00201FB072
:103F6000BDE8F08F013501EB0A00B542014692D160
:103F7000A6E7BAF1000FF5DD5B4601EB0A0011F987
:103F8000012F814243F8042FF9D101350146B54292
:103F900081D195E70024254699E700BF8800704746
:103FA000C8689C462DE9F04F4642A7B01796D2E963
:103FB0000163DDE930451B93D3686F6800934B685C
:103FC000002F1C9721930B6814938B681D930B692A
:103FD0001E934B691F93AB68129363682293A36887
:103FE000159340F30881009A1D9D02F00303129F70
:103FF00094100293002FC5F100030794249340F31B
:10400000FA80A30002FB07F1CDF824C084461A9081
:1040100018460A93C4EB8473239161469B00711880
:1040200016931B9B199102FB03F232992B44014416
:104030000D920022259318912092179B1D9A249986
:10404000002B229810920E91259A19990F921A9A84
:10405000C8BF00228142DDF860B013441392A8BFAC
:1040600001461B9A0B91002102FB03F31191089367
:10407000169B0E9A03EB0B00109B002A0F99139EC0
:10408000D8BF1D46159BC8BF00250B9C99420690C2
:104090000C95A8BF1946A642039180F282808D42FA
:1040A0007FDA0099AC18089BAA460A4609991C4475
:1040B00002FB0414214638F07DFACDE90464009B2C
:1040C0000AF1010A1C44039B534556D0079B254621
:1040D000002B63DD0699CDF804B00A6855F8043B5F
:1040E0004FFA82F810464FFA83FC43F3072742F356
:1040F000072E43F30746E04542F307494FEA23639F
:10410000B8BF6CF30700BE45B8BF67F30F20B145D9
:10411000B8BF66F31740B3EB226F29DD63F31F606E
:1041200041F8040B5945D8D10A9BE518029B002B96
:10413000C5D0019995F9003091F900209A42B8BF95
:104140000B70029B012BBAD0019995F9013091F9BE
:1041500001209A42B8BF4B70029B032BAFD101994B
:1041600095F9023091F902209A42B8BF8B70A6E708
:1041700041F8040B8B45B0D1D6E7059A0D99049B05
:104180000A44013314460B9A04939A4209D0079BC0
:1041900025460594002BDDF830A09BDC069B01939F
:1041A000C4E70E99149A08461099119B891A104475
:1041B000013310910F9911938A1A0E900F92009A61
:1041C0009344129A9A427FF453AF1799219A084662
:1041D0001A99209B891A104401331A911999209336
:1041E0008A1A239917901992189A0A4418921C9ABD
:1041F0009A427FF422AF1C9B129901FB03F1009BB2
:1042000003FB01F39A101946002A61DD329BDDE9B8
:104210001E6703EB82029C46DCF8003000254FFA53
:1042200083FE43F3072443F307401B16B645B8BF8C
:10423000B646B442B8BF3446B0424FFA8EFEB8BF5D
:104240003046B34264B2B8BF3346BE4540B2A8BFA1
:10425000BE46BC425BB2A8BF3C466EF30705B842FF
:1042600064F30F25A8BF3846BB4260F31745A8BFCB
:104270003B4663F31F654CF8045B9445CCD111F0C9
:10428000030121D092F900301E981F9D83422C46D5
:10429000B8BF0346AB42A8BF2B460129137013D009
:1042A00092F901308342B8BF0346AB42A8BF2B4608
:1042B0000229537008D092F902309842B8BF1846CC
:1042C0008542A8BF04469470002027B0BDE8F08F57
:1042D000329AD4E7000000002DE9F04FA1B0069318
:1042E0000B1E1F9017921E9340F38884411E531E8D
:1042F0001591C318002102931D91159B179993F9ED
:1043000001200129039240F38B850133029813F9B0
:10431000011F8A42B8BF0A469842F8D10392DDF8DD
:1043200054800023C1460793B4E04FF08040002141
:104330008B4AC2FB0A01002871F1000306DA6FF014
:104340000042002312184B4110461946C20F42EAA0
:104350004102129911440A464910D00702D500299A
:10436000A8BF0131019BC91800F1BA814FF080420A
:1043700000237C48C0FB0123002A73F1000104DA0A
:104380006FF00040002112184B41D10F4FF08046D2
:104390000027754841EA4301744B4FF0F20A01F1DE
:1043A000E241A1F52521A1F26C71C3FB0167F20F77
:1043B000139B4FF0804642EA4702002719406C4B9E
:1043C0000EEA020E81EA0E01C3FB01673B46F60FBF
:1043D0000B9F46EA43063940664B002708EA060869
:1043E0004FF0804681EA0801C3FB01673B46F70FA7
:1043F000294000264FF0804547EA43070F9B3B408A
:1044000059405D4BC3FB01560C9BEA0F4FF08045B2
:1044100019400D9B42EA4602002613404FF08042AD
:104420005940564BC3FB01563346EE0F01EA0C01CF
:104430000A9D46EA4306119B334059400023C0FBC6
:104440000123D00F29404FF0804240EA43000E9BE9
:10445000034059400023CAFB01231E46D20F109B84
:1044600042EA46021940089B144081EA04001840C1
:1044700080EA0B0BCBF30B034FEA2B3BB3F5006F3A
:10448000079BA8BF0BF1010B5B440793029B4B45B5
:1044900000F02E81039A19F9013F9B1A2B9A9A4238
:1044A000F4DC2A9A03FA02F1069ACB0FB3EBD27F1F
:1044B00000F01A81324A4FF0FF33B1F1004F65D15D
:1044C0000698884262D100244FF0FF352D4B4FF4FF
:1044D000003AAC46A6461293A3462B4BA046214673
:1044E0002246204608950A95109513950D9411942F
:1044F000019319A7D7E90067CDE90B55CDE90E4423
:10450000CDE9046701268642B8BF0AF1010A91424B
:1045100000F0E2801A484FF0FF31DDE90423121861
:104520004B41002A1046194671F1000306DA6FF07C
:104530000042002312184B4110461946C20F42EAAE
:1045400041021AEB020A7FF5F0AE0D484FF0FF3141
:10455000EEE600BFAFF3008000010040FFFF1F0048
:10456000ABAAAA2A94A8F57011FE0A007BBEAF631D
:10457000F2CBA24D6CAC162FA4AA5211B72A580246
:10458000010000C0F8FFFF01E0FFFF0F0698C0FB2D
:104590000123002A73F1000104DA6FF000400021CA
:1045A00012184B41D00F4FF08044002540EA4300E1
:1045B00040F07F43191A5B0103F18053C1F3006E91
:1045C000C3FB0345002C01930EF1FF3275F100038C
:1045D000139204DA6FF000460027A4197D41E20F20
:1045E000C1F3007C4FEAE57842EA4502A2FB0245AE
:1045F00002FB08F6129205EB460514F1804645F1E0
:1046000000073346002E3C46CDE9083477F100031D
:1046100008DA6FF000460027DDE908349B197C4179
:10462000CDE90834019DB0FA80F0089CC1F34076D2
:10463000EF1705FB08F84FEAD47AA5FB023402FB1A
:1046400007884009C1F38065C1F3C067C0F1000B62
:10465000CEF1000ED20F2BF0004BCDE90434099BB4
:10466000C1F38074C1F340614AEA430A059B4344A5
:10467000C1F100080593431E0AF003005FEAAA0A8D
:10468000089304F1FF33C4F100041093C5F1000353
:1046900005F1FF350F93C7F100030D9307F1FF33C9
:1046A0000C93C6F100030E9306F1FF330A9301F158
:1046B000FF330B93019B4FEAD371CCF100030CF154
:1046C000FF3C11937FF51EAF02268642B8BF0AF168
:1046D000010A91427FF41EAF4FF0804000211CE799
:1046E000974A4FF0FF3344E64FF080420023E4E660
:1046F000079A002A00F09783B2FA82F36FF0004421
:10470000002502FA03F8C3F1230308F100481693C9
:104710004246D317591C08BFB8F1004F00F08583FB
:1047200018F10048874943F100095FEA69094FEA37
:104730003808C8F10000A8FB012301FB09018048EB
:104740000B4480184FF0FF310246594100280B46B8
:1047500073F1000101DA02196B41D60F46EA4306F4
:1047600006F15A3E4FEAEE7B0EFB09F3AEFB08451D
:10477000F24608FB0B3314F180401D4445F1000163
:10478000002871F1000304DA6FF000420023801862
:104790005941C20F4FF0000C42EA4102D2F10052DF
:1047A00040F15083664C4FF0FF3502FB0BF1D717F9
:1047B000A2FB0A230AFB071012EB040A034443EB93
:1047C000050BBAF1000F7BF1000306DA6FF0004031
:1047D00000211AEB000A4BEB010B4FEADA7646EAAE
:1047E0004B06B6F1604FCCBFB6004FF000467644A2
:1047F000F70F674500F02E83514C4FF0FF3506FB55
:1048000009FEF117A6FB082308FB01EE12EB040AD0
:10481000734443EB050BBAF1000F7BF1000306DA9A
:104820006FF0004000211AEB000A4BEB010B4FEA3E
:10483000DA7141EA4B01C1F10051B7EBD17F00F0D1
:1048400005833F4A4FF0FF33C1FB0623002A73F173
:10485000000104DA6FF00040002112184B41D10F23
:1048600041EA4301B1F1005F4FEA810380F2CD825A
:10487000B1F1604FD8BF4FF000431E44F70F6745BA
:1048800000F0CA822E4C4FF0FF3506FB09FCF117F1
:10489000A6FB082308FB01C8434412EB040843EBC2
:1048A0000509B8F1000F79F1000306DA6FF0004056
:1048B000002118EB000849EB01094FEAD87141EAE1
:1048C0004901C1F10051B7EBD17F00F0C7821C4A0A
:1048D0004FF0FF338E4240F07E82B6F1004F40F041
:1048E0007A826FF000431E44B6F1804FC0F26A82B4
:1048F0006FF000430793179B002B40F37081079BD9
:10490000002BC0F2AF824FF080430024CDE91A346F
:104910001F9801222C99179B091AD31ADDE915B0AB
:104920000B4402998240CDF804B003EB010A013A2E
:10493000D34653101892199301331C933CE100BFE6
:10494000010000C0C4C3C3C32A9B069A9940CB0F81
:10495000B3EBD27F00F03082AD4A4FF0FF33B1F1BC
:10496000004F40F06B810698884240F0678100213B
:104970004FF0FF34A74B4FF40032A2462546119367
:1049800008468C460E460F46A34B1494089110918E
:104990000FF27429D9E90089CDE90E44CDE912441A
:1049A000CDE90A11CDE90C11CDE904894FF0010ED2
:1049B000BE45B8BF0132B44500F0DE81944E4FF0E1
:1049C000FF37DDE9048918EB0608464649EB07097D
:1049D000002E4F4679F1000C09DA6FF000484FF0D5
:1049E000000918EB060849EB070946464F464FEA0F
:1049F000D67848EA470812EB080800F1D9814FF051
:104A000080460027854AC2FB0867002E77F1000226
:104A100009DA6FF000484FF0000918EB060849EB7F
:104A2000070946464F46F20F119E42EA47021644D6
:104A300032467610D20702D5002EA8BF0136F318F1
:104A400000F1B2814FF080460027754AC2FB036730
:104A5000002E77F1000304DA6FF000420023B6184D
:104A60005F414FEAD67C4FF080484FF000096D4A15
:104A70004CEA470C6C4FF2230CF1E24CACF5252CC0
:104A8000ACF26C7CC7FB0C8947460CEA0505FE0FAF
:104A9000002746EA490630404FF0804645406348CB
:104AA000C0FB05674FEAD67E05EA0A0A4FF080464A
:104AB0004EEA470E00274FF0804501EA0E018AEAD0
:104AC000010A5B49C1FB0A671299F00F4FF080465B
:104AD0000AEA010A089940EA4700002701404FF01E
:104AE00080408AEA010A5349C1FB0A6713994FEAD9
:104AF000D67C00260AEA010A0A994CEA470C01EA28
:104B00000C0C4D498AEA0C0AC1FB0A56ED0F0C99B0
:104B10000AEA040A45EA460529408AEA010A002110
:104B2000C2FB0A01149A4FEAD07E0AEA020A0B9AE3
:104B30004EEA410E4FF0804102EA0E0E00228AEA50
:104B40000E0AC3FB0A121346CD0F0E9945EA430520
:104B50000D9B0AEA010A2B408AEA030A0F9B0AEA24
:104B60000301109B5940079BB3F1004F40F00B81AC
:104B70008B4240F008816FF000431C98189A1999F5
:104B80001A4031EA230128BF01461698914243FAA0
:104B900000F3B8BF0133803B13F17F0FC0F2F08008
:104BA0007E2B00F30D815BB28BF800300BF1010B13
:104BB000DDE90123934212D0019B13F9011F0193F8
:104BC000039BC91A2B9B8B427FF7BEAE80230BF150
:104BD000010B0BF8013CDDE901239342ECD1029972
:104BE000179A1D9B084615990133104411441E9ACB
:104BF0001D939A42029015917FF47FAB21B0BDE8DE
:104C0000F08F00BFAFF3008000010040FFFF1F00E6
:104C1000010000C0F8FFFF01E0FFFF0FABAAAA2AC6
:104C200094A8F57011FE0A007BBEAF63F2CBA24DD3
:104C30006CAC162FA4AA5211B72A58020698C0FBD2
:104C40000123002A73F1000104DA6FF00040002113
:104C500012184B41D10F4FF08044002541EA430127
:104C600041F07F435A1A5B01C2F3407EC2F3C06C2D
:104C700003F18053C2F380600EF1FF36C2F3406A45
:104C8000C3FB0345002C14960CF1FF36139600F17C
:104C9000FF36129675F1000604DA6FF00046002721
:104CA000A4197D41E60FEF1746EA4506A6FB064527
:104CB00006FB07F8119605EB480514F1804845F10D
:104CC000000944464D46002CCDE9084579F1000421
:104CD0000ADA6FF00044002518EB040849EB0509D7
:104CE00044464D46CDE90845089C03FB07F7B1FA59
:104CF00081F14FEAD478A3FB06454909CDE9044583
:104D0000DD17099C06FB0579CEF10007C2F380751B
:104D100048EA44080B97CCF10007C2F30074C2F3D1
:104D200000620A974742484201390897F60F0F91EF
:104D3000691E059F20F000400E9169424F4410907B
:104D40000D9150426142551E5FEAA80205970C91F1
:104D500008F00307CAF1000104F1FF344FEAD37CE5
:104D60000AF1FF3A7FF522AE4FF0020EBE45B8BF02
:104D70000132B4457FF422AE4FF08046002720E692
:104D80006FF07F0310E7DDE91A45C1FB0345002CF6
:104D900075F1000304DA6FF00040002124184D4142
:104DA000E20F42EA4503E8E6314E4FF0FF374CE6AA
:104DB0002F4E4FF0FF3725E64FF080420023CEE51F
:104DC0007F23F1E6B6F1404F4FEA4603D8BF4FF0DC
:104DD000004307938FE5C1FB0623002A73F100010E
:104DE00004DA6FF00040002112184B41D10F41EA64
:104DF0004301B1F1005F4FEA8103BFF672ADB1F13B
:104E0000604FD8BF4FF000436DE56FF000431E4484
:104E1000F70F67457FF436AD4FF08044002534E549
:104E200000293FF77CAA032316934FF0010C4FF0A3
:104E30005A3E4FF0FF384FF0FF390E4A4FF05A3AC2
:104E40004FF0000B4FF080440025AEE44FF080425D
:104E50000023F9E44FF080440025D0E44FF0804275
:104E6000002337E5024B4FF0FF34CDE91A344FE50C
:104E7000010000C001000020102803D8024B53F8A5
:104E80002000704701487047D84108081C420808B4
:104E90002DE9F04F0E46012126FA01F505EB010A36
:104EA0002DED068B4FEACA0B8BB00390584602F0EB
:104EB000DFFA002800F00581B40080460121204679
:104EC00002F0D6FA0746002800F0FD8085B103986D
:104ED000ABF1080C39463A19034684441868083384
:104EE00041F8040B53F8040C9C4542F8040DF5D12D
:104EF000F30724D4202E13D0402E11D0802E0FD0B3
:104F0000B6F5807F0CD0B6F5007F09D0B6F5806F7E
:104F100006D0B6F5006F03D0B6F5805F40F0BE80D6
:104F2000802E14D0704C384602F0A4FA404602F0AD
:104F3000A1FA20460BB0BDEC068BBDE8F08F039BB9
:104F40001C4407EB850354F8042C1A60D2E7674B26
:104F500040200121ADF820609A89ADF810004FF48F
:104F60000070ADF81C20D3E90132CDE90532604B69
:104F7000099302F07DFA0446002800F08D80024675
:104F80000023394604A8FCF7EFFD206800212346E2
:104F90004246C8F8000004F5FC70C8F80410D4F8C4
:104FA00004C0C8F80412C8F800C29968083308326F
:104FB0001160596898425160F7D1204602F05AFAC0
:104FC0007200C346DDF80C90002407EE902A9FED96
:104FD00044ABB8EE678B07EE904A0134B8EEE76B4E
:104FE00026EE0A6B86EE089BB7EEC99B19EE100AF7
:104FF00033F01AFE09EE900A19EE100A34F07EF82A
:10500000DBED017A06EE900A5B46A2450BF1080B38
:1050100066EEA77A93ED007AE7EE297AE9EC017A59
:10502000D9D1A6422BD9751B039B9FED2DAB03EB6A
:10503000840908EBC50507EE904A083D0134B8EE37
:10504000E76B26EE0A6B86EE089BB7EEC99B19EE5E
:10505000100A33F0E9FD09EE900A19EE100A34F057
:105060004DF8D5ED017A06EE900AA64295ED007A4C
:1050700067EEE67AE7EE297AE9EC017ADBD1384689
:10508000002402F0F7F9404602F0F4F920460BB094
:10509000BDEC068BBDE8F08F164C44E7002304AA54
:1050A0003046009219461A4602F092F8044600284B
:1050B000F2D04246394602F055F9204602F0DAF9BC
:1050C0007EE70C4C35E740460A4C02F0D3F930E756
:1050D000204602F0CFF92EF077FF00BFAFF300803B
:1050E000182D4454FB21094008FCFFFFC841080863
:1050F000C83F080816FCFFFF2DE9F04F002B89B0D0
:105100000190DDF850B01298169CC0F28A818B4253
:1051100080F287810028C0F28481904280F28181F0
:1051200003EB0B058D4200F37C81159D45199542DB
:1051300000F37781082C02D0102C40F07281082CEB
:10514000159A00F0B180002A40F388804FEA4109A7
:10515000ABF102015A000BF1FF334FEA4B0ADDF8C5
:105160004CC000FB0920019A03934B081044CDF872
:1051700050B00133D3466446CA469A004FF0000E41
:105180005B000646DDF850900692079340EA040261
:105190000346214612F0020264D0B9F1000F54DD3B
:1051A0001399371D0CF10402ACEB010501999642ED
:1051B00038BFBC45A6EB01016CD3B9F10D0F69D91D
:1051C000C6F34007039A002F0CBF012302239A4223
:1051D000C0F03381002F59D0821C03880592A21C95
:1051E00023800292012204927A00A9EB0707002390
:1051F00011442A44019D4FEA57082944139D2A442B
:10520000013351F8045B984542F8045BF8D827F065
:1052100001020499059D530011449742884605EB0D
:105220000301049102990B440FD008F1010704997E
:1052300035F81250023301F10208B945029921F8FC
:10524000125002DDB8F800201A800EF1010E159BF5
:1052500050445C4473455644DC4497D1002009B067
:10526000BDE8F08F039D002D0BDD0699221F451828
:1052700053F8041BAB4242F8041FF9D1069AA11857
:10528000079A9145E1DD1B880B80DEE70294CDE9AA
:105290000470A9E7A21E00EB0B0533F8021BAB421A
:1052A00022F8021FF9D1D0E7002AD7DDABF10302C3
:1052B00000FB0130ABF10403139C04924FF0000893
:1052C000019A23F00303A646024404335042CDE979
:1052D0000213014642EA0400134610F003007DD099
:1052E000BBF1000F69DD271D101D139D019E844237
:1052F00038BFBA42A4EB0505A2EB0606C0F09380C6
:10530000BBF10B0F40F28F8011F0030C00F087808F
:105310001078BCF1010F02F1010304F1010E2070BD
:105320007DD05078BCF1020F02F1020304F1020EAD
:10533000607074D0907804F1030ED31C4FF0030A10
:10534000A0706644019F6544ABEB0C0C3E44139F78
:1053500000204FEA9C093D44013056F8047B484543
:1053600045F8047BF8D32CF003008445824403EB1A
:1053700000060EEB000520D01F5C0AF101039B45DF
:105380000EF8007019DD0AF1020370789B45687011
:1053900013DD0AF10303B0789B45A8700DDD0AF117
:1053A0000403F0789B45E87007DD0AF1050A3379BC
:1053B000D3452B7101DD73796B71029B08F10108F4
:1053C0005C441A44C91A159B43453FF447AF42EA6F
:1053D00004001346A64610F0030081D1049D002D61
:1053E0000BDD039D201F561953F8045BB34240F8B0
:1053F000045FF9D1039804EB000E8345DDDD451C05
:105400001E78AB458EF80060D7DD02305D788345AD
:105410008EF80150D1DD9B788EF80230CDE7E24660
:105420008FE709481BE7601E0BEB020613F8015BD0
:10543000B34200F8015FF9D1BFE7028800F102082A
:10544000A31C2280FEE600BF10FCFFFF2DE9F04FF9
:10545000012A8DB00A9040F389801898920300FBCE
:1054600001F089030290179892FBF0F2099200284C
:10547000169A91FBF2F2049274DD169A002A71DDFD
:10548000189A002A6EDD0693013A189B169903FBC1
:1054900001F30B9300230893029BD31805934FF459
:1054A00000530793079A0999930BC2F30D0A0A4414
:1054B0000A99069CCAF5804B0792029A03FB0213D5
:1054C000002203934FF40053CDE90032189A009B59
:1054D00004EB0209049A9D0BC3F30D0E1344CEF5A1
:1054E00080480093189B03FB05F5EF18029B05F11C
:1054F000FF3CEE18059B1D44039B9C441F441E4427
:105500001D441CF8010F17F8012B08FB00F015F8DB
:10551000011F16F8013B00F500500EFB01F10EFBD8
:10552000020201F50051920B08FB03130BFB02F280
:105530009B0B02F500520AFB03239B0B04F8013B73
:105540004C45DED1019B169A01339A420193BDD19D
:10555000069A0B99089B0A4401330692179A0893FE
:105560009A429FD100200DB0BDE8F08F0048FAE7C5
:1055700010FCFFFF2DE9F043DD0002F5847700EB1E
:10558000031600F1080405F1040C01EB410ED2F8FA
:1055900004804FEAC10960443544BC463A464FEAAC
:1055A000CE0E090111E000ED017AC0ED007A85ED23
:1055B000004AC5ED014A013B04F1080406F1080662
:1055C00005F1080500F1080072D097ED011ADCED35
:1055D000004ADCED011AF444D2ED002A92ED013AC2
:1055E0000A44D7ED000A4F44D0ED007A95ED015AF8
:1055F000D6ED015A27EEC17A25EE244A50ED016A14
:1056000065EEA23A95ED002A27EEA06AD6ED007A63
:1056100025EE615A65EEC35AA1EE266AA4EE825ABF
:1056200054ED014AA1EE824AE2EEA75AA0EEA67A14
:1056300054ED026AE3EE273A34EE063A76EEA51A06
:1056400075EE072A34EEA32A77EE457A44ED021A66
:1056500031EEE21A32EE435A04ED012A36EEE57AD3
:1056600086ED001A76EE446A86ED015A74EEE35A2E
:1056700014ED025A14ED016A36EE874A35EE225ACD
:1056800036EE036A75EEE74A04ED025A37EE667AA3
:1056900004ED016A77EEA57AB8F1000F83D100ED31
:1056A000014AC0ED004A85ED007AC5ED017A82E736
:1056B000BDE8F083F0B501FB03FCDD0002F5847763
:1056C00000EB031602EBCC0C44192A1DB6EE004B7E
:1056D000DCED433A4FEAC10E02442544BC46043691
:1056E00008300901D4ED015A013B95ED011A00F192
:1056F00008009CED013A06F1080697ED012A05F134
:10570000080563EE416A52ED011A22EE656A56ED14
:10571000032A97ED007A02F10802DCED007A774463
:10572000A1EE876A10ED045AE2EEA76A8C4467EE98
:10573000817A04F1080427EE257AB7EEC55AE2EE25
:10574000837AA1EE827A76EE262A76EE666AB7EE44
:10575000E21A37EE273AA1EE445BB7EEC31A77EEB2
:10576000677AB7EEC55B02ED035A10ED035AB7EE48
:10577000C55AA1EE445BB7EEC55B04ED015A10EDCE
:10578000046A10ED037A36EE226A37EE037A00EDF2
:10579000046A00ED037A12ED037AA7EEA37A06ED10
:1057A000037A14ED017AA6EEE37A05ED017A12EDA3
:1057B000037AA7EEE37A02ED037A54ED017AE6EE7E
:1057C000A37A44ED017A8DD1F0BD00BF2DE9F04FF1
:1057D00001FB03F79A4602F58476DB00FF00BAF17D
:1057E000000F00EB03053E4405EB0304374496ED40
:1057F000002AD6ED011A04EB030697ED001AD7ED47
:10580000010A2DED088B85B040F3DF80083302F5E7
:10581000867201EB4109083033444FEAC10B083569
:10582000083403930B0108364901019396469446C8
:1058300017464FEAC9094FF00008039B029112ED89
:10584000016A08F1010892ED005A083015ED017A5D
:10585000C2451EED014A5A4426EE070ADEED006AF3
:1058600025EE477A55ED023A53ED017A05F1080528
:1058700053ED025AA3EE850AA3EE867A57ED018A0C
:1058800064EE274A97ED005A66EEE77A5CED012A4E
:1058900014ED016A03F10803E5EEA64A56ED016A2C
:1058A000E5EE847A9CED004AF0EE47AA14ED028AF8
:1058B00065EE463A029962EEA65ACC4424EE667A28
:1058C00056ED026A28EE866A8E44E8EE283A50EDDC
:1058D000038AE6EE845A0199B0EE673A50ED047AF5
:1058E000A8EE056A0F44A6EEA27A04F108047AEE47
:1058F000836A06F1080630EE249AB0EE678AF0EE6D
:10590000689A30EE640A36EE65BA73EEC74AF0EE76
:10591000672AA6EE818AB0EE684AE9EE019A33EE74
:10592000877A7AEEC3AAE6EE822A60EEE43AA9EE1E
:10593000024A2BEE203A36EE256A20EEC0AAA0EEEF
:10594000213A61EEE45AB0EE480AF0EE634AB0EE56
:10595000695AE7EE012AA7EE020AA6EE014AA6EE70
:10596000025A36EE877AABEE21AAEAEEE14AEAEE77
:10597000A05A77EE277A39EE066A72EEC33A40ED06
:10598000047A30EE0A7A74EE646A75EE257A32EEA5
:10599000833A36EE286A74EE244A30EE4A0A75EEEF
:1059A000655A00ED036A45ED043A45ED036A03EDDF
:1059B000043A43ED034A04ED047A44ED037A06ED1C
:1059C000040A46ED035A7FF43AAF05B0BDEC088BEC
:1059D000BDE8F08F2DE9F04F89B09A4606460F4694
:1059E000DDF8488002F5847906934FEAC8040591F2
:1059F0001568204601F03AFD53468646002B67DDC8
:105A0000083C002003FB07F34FEACA0B04EB0E0C23
:105A100003900793CDE90160B8F1000F4BDD019BC6
:105A200000270EEBC702013793E80300B8455B443B
:105A300082E80300F5D1019C4FF0000ACDF81080F8
:105A4000221D029EDDF81C80131F012F9EE803001B
:105A500083E8030026D012ED016A7146D4ED016A95
:105A600000233344D1ED037AD1ED025A08319D422F
:105A7000D8BF5B1B614509EBC30090ED015AD0ED27
:105A8000004A27EEC57A67EEA47AA4EEA57AE5EE81
:105A9000257A36EE076A76EEA76A02ED016AC4ED52
:105AA000016ADED10AF1010A5C4446445A44574572
:105AB000CAD1DDF81080019A05990832039B019242
:105AC0000133029A03930A440292069A9A42A3D19E
:105AD000704609B0BDE8F04F01F0CCBC2DE9F04FA5
